:100000000C94B3020C94DB020C94DB020C94DB0224
:100010000C94DB020C94DB020C94DB020C94DB02EC
:100020000C94DB020C94DB020C941E1B0C94B21992
:100030000C94DB020C94DB020C94DB020C94DB02CC
:100040000C94DB020C94DB020C94DB020C94DB02BC
:100050000C94BA060C94DB020C94DB020C94D91BB2
:100060000C94DB020C94DB020C94DB020C94DB029C
:100070000C94DB020C94DB020C94DB020C94DB028C
:100080000C94DB020C94DB020C94DB020C94DB027C
:100090000C94DB020C94DB020C94DB020C94DB026C
:1000A0000C94DB020C94DB020C94DB02290014009C
:1000B0001A000800150017001C0018000C001200A0
:1000C00013002A00E20004001600070009000A00DD
:1000D0000B000D000E000F0033002800E1001D0092
:1000E0001B00060019000500110010003600370043
:1000F0003800E30000000000000000002C442B4406
:100100002C00E000000000000000000035001E0090
:100110001F002000210022002300240025002600CB
:1001200027000000E200B758B658CD58B558E95C32
:100130000000000000002F0030003400E1001D012D
:100140001B01E0011901EA5CE24C000000002D00F7
:100150002E00E30000000000000000002D44FFFF1F
:100160004C00E000000000000000000005443A00E0
:100170003B003C003D000000650046004700480091
:1001800000000000E2003E003F004000410000008F
:10019000000049004A004B0000000000E10042005E
:1001A000430044004500000000004C004D004E009C
:1001B0003100E3000000000000000000FFFF2D44BC
:1001C0002B00E000000000000000000004440000DC
:1001D000000000000000470054005F006000610064
:1001E0002D000000E2004A0052004D004B00390093
:1001F00055005C005D005E0057002800E1005000E3
:1002000051004F004E000000620059005A005B0090
:100210000000E3000000000000000000FFFFFFFFFF
:100220000000E00000000000000000002ED12FD1EF
:1002300030D131D132D133D150D151D152D153D12A
:1002400054D155D15CD134D136D138D13AD13ED107
:1002500043D147D149D14BD14DD14FD15DD135D1CA
:1002600037D139D13BD13FD144D148D14AD14CD1FA
:100270004ED156D100000000000000003CD13DD11D
:1002800045D146D100000000000000001E001E0005
:100290001E001E001E001E001E001E001E001E006E
:1002A0001E001E005CD114001A0008001500170083
:1002B0001C0018000C00120013002F005DD1040078
:1002C0001600070009000A000B000D000E000F00C9
:1002D0003300340000000000000000000600190098
:1002E000110010000000000000000000637573742E
:1002F0006F6D0064656661756C74006F6E6C794338
:100300007573746F6D006B65796D61702E006B6530
:10031000796D61702E637573746F6D0A6B65796D9D
:1003200061702E64656661756C740A6B65796D61C8
:10033000702E6F6E6C79437573746F6D00656570A8
:10034000726F6D2E6672656500656570726F6D2ED9
:10035000636F6E74656E747300656570726F6D2E79
:10036000636F6E74656E74730A656570726F6D2E5F
:1003700066726565002F006372630076657273694B
:100380006F6E0076616C69643F0064656661756CD0
:10039000744C617965720073657474696E67732E4D
:1003A0000073657474696E67732E64656661756C3D
:1003B000744C617965720A73657474696E67732E23
:1003C00076616C69643F0A73657474696E67732E35
:1003D00076657273696F6E0A73657474696E67739C
:1003E0002E6372630066616C7365007472756500DC
:1003F00068656C700068656C70000D0A2E00050160
:100400000906A101050719E029E715002501750175
:10041000950881029501750881019505750105080A
:100420001901290591029501750391019506750839
:10043000150025FF0507190029FF8100C0050C09DB
:1004400001A1018504150026FF0319002AFF039569
:100450000475108100C005010906A1018508050782
:1004600019E029E7150025017501950881020508A5
:100470001901290895087501910205077504950170
:100480008101190429DD15002501750195D9810225
:10049000750395018101C005010980A1018505153C
:1004A0000026FF00190029FF950175088100C0058D
:1004B000010902A101050919012908150025019565
:1004C000087501810205010930093116000026FF77
:1004D0007F75109502810209381581257F75089571
:1004E000018106C0080B000202020100090400009D
:1004F000010202000005240010010524010101048D
:1005000024020605240600010705810310004009A6
:10051000040100020A000000070502024000000773
:1005200005830240000012010002EF020140EDFECF
:100530006060000101020301534F46542F48525599
:10054000460053706C69746F67726170687900045B
:10055000030904007103C906A20C1910E811D8128E
:100560003713F313021511241FBECFEFDAE0DEBFFD
:10057000CDBF11E0A0E0B1E0E2EEFAE302C00590E9
:100580000D92A637B107D9F723E0A6E7B1E001C085
:100590001D92AA3CB207E1F712E0C3EBD2E004C01F
:1005A0002197FE010E94201DCA3AD107C9F70E9477
:1005B000C61B0C946F1D0C94000082E692E00E9412
:1005C000AE0A8BE592E00E94560980E090E0089523
:1005D00082E692E00E94770B80E090E00895EF922F
:1005E000FF920F93CF937C01C22F022F242F462F0F
:1005F000BC018CE892E00E942E0D019779F1F70181
:10060000808191819C012C55314D2230310518F0AB
:1006100080E090E025C024EA280FC1FF11C081E0EE
:1006200090E001C0880F2A95EAF790917601892B16
:1006300080937601833091F480E00E94A9080EC077
:10064000C0FF0CC081E090E001C0880F2A95EAF756
:1006500080959091760189238093760181E090E0E6
:10066000CF910F91FF90EF900895CF93DF93EC011E
:10067000BC018BE692E00E94BC0C0197A9F0BE0180
:100680008BE592E00E94E009019771F0BE0180E6DF
:1006900092E00E94F90B019739F0BE0181E692E0E9
:1006A000DF91CF910C94800B81E090E0DF91CF91AE
:1006B000089580E090E008958BE692E00E94E00CBF
:1006C00080E090E0089580E090E0089587E791E071
:1006D0000E94740386E00C946E0987E791E00C9405
:1006E0009B03109276010895CF93DF9340E855E283
:1006F00060E070E08AE593E00E94FC140E94DD0255
:100700008DE791E00E94B3030E94810D0E948E0E3E
:100710000E94980E0E94F107C0E0D0E06D2F8C2F50
:100720000E949207DF5FDC30C9F7CF5FC430A9F7C2
:10073000DF91CF9108950E94231C609378017093FC
:10074000790180937A0190937B010E94E8028DE702
:1007500091E00E94AC060E945C030E944F0E0E9432
:10076000000E0C946303CF93DF930FB6F894A89513
:1007700080916000886180936000109260000FBEDD
:10078000A9E1B1E045E251E061E070E08D91E82F30
:10079000F0E024E0F595E7952A95E1F721A18F7027
:1007A000EB0102C0CC0FDD1F8A95E2F7CE019C2F32
:1007B0009095922391A392A1892B82A34A175B075C
:1007C00029F7A5E2B1E049E251E061E070E08D91E6
:1007D000E82FF0E094E0F595E7959A95E1F721A1EF
:1007E0008F70EB0102C0CC0FDD1F8A95E2F7CE01BE
:1007F000922F982B91A392A1892B82A34A175B0772
:1008000031F780E1809381001092800080E295E3CF
:10081000909387008093860081E18093810081E03E
:1008200080936F00DF91CF910895FF920F931F93F4
:10083000CF93DF9306EB11E0CEEBD1E0F12C3881C2
:100840004981F80180819181282F2170220F532F37
:100850005170252B09F014C1BC0176956795617024
:10086000660F31FB222720F9262B09F0FDC0BC01C1
:1008700076956795769567956170660F32FB2227AE
:1008800020F9262B09F0E4C0BC0176956795769592
:100890006795769567956170660F33FB222720F97F
:1008A000262B09F0C9C0BC01729562956F7067274D
:1008B0007F7067276170660F34FB222720F9262B93
:1008C00009F0AEC0BC0176956795729562956F7020
:1008D00067277F7067276170660F35FB222720F935
:1008E000262B09F091C0BC010024660F771F001C65
:1008F000660F771F001C672F702D6170660F36FB27
:10090000222720F9262B09F073C0BC01660F672F40
:10091000661F770B71956170660F37FB222720F9F0
:10092000262B09F05AC0292F2170220F342F317045
:10093000232B09F047C041FB222720F9392F3270C1
:10094000232BA9F592FB222720F9220F42FB332704
:1009500030F9232B09F593FB222720F9220F43FBC3
:10096000442740F9242B71F489939993F3940E5FF3
:100970001F4FF4E0FF1263CFDF91CF911F910F91D2
:10098000FF9008954BE06F2D80E090E00E94D0062C
:10099000F80180819181E8CF4AE06F2D80E090E0FE
:1009A0000E94D0064981F80180819181D4CF49E02D
:1009B0006F2D80E090E00E94D0064981F80180818F
:1009C0009181C0CF48E06F2D80E090E00E94D0067A
:1009D0004981F80180819181AECF47E06F2D80E0A1
:1009E00090E00E94D0064981F801808191819BCFDF
:1009F00046E06F2D80E090E00E94D006388149816A
:100A0000F8018081918181CF45E06F2D80E090E0F9
:100A10000E94D00638814981F8018081918163CF9D
:100A200044E06F2D80E090E00E94D006388149813B
:100A3000F8018081918146CF43E06F2D80E090E006
:100A40000E94D00638814981F801808191812BCFA5
:100A500042E06F2D80E090E00E94D006388149810D
:100A6000F8018081918110CF41E06F2D80E090E00E
:100A70000E94D00638814981F80180819181F7CEAA
:100A800040E06F2D80E090E00E94D00638814981DF
:100A9000F80180819181E0CE6430D8F44C30C8F404
:100AA000E62FF0E0EE0FFF1FE255FE4F81E090E0F1
:100AB000A0E0B0E004C0880F991FAA1FBB1F4A9591
:100AC000D2F7809590952081318182239323918361
:100AD00080830895643088F44C3078F4E62FF0E099
:100AE000EE0FFF1FE255FE4F8081918102C0969567
:100AF00087954A95E2F78170089580E00895E9E1CD
:100B0000F1E040E050E060E070E000009191A92F3A
:100B1000B0E084E0B595A7958A95E1F790962C9181
:100B200030E09F7002C0359527959A95E2F72170C5
:100B3000332781E02827042E02C0220F331F0A9496
:100B4000E2F7622B732B4F5F5F4F4C305105E9F694
:100B5000CB0108953F924F925F926F927F928F9256
:100B60009F92AF92BF92CF92DF92EF92FF920F933C
:100B70001F93CF93DF93CEE7D1E036EBE32E31E046
:100B8000F32E45E2A42E41E0B42E67013701312C4B
:100B90008881882309F4DCC08150888302E010E05A
:100BA00020E090E08981882321F081508983022F01
:100BB000192F8A818111C9C004608B818111C2C043
:100BC00008608C818111BBC000618D818111B4C02E
:100BD00000628E818111ADC000648F818111A6C039
:100BE0000068888581119FC011608985811198C036
:100BF00012608A85811191C014608B8581118AC031
:100C00001860F50181915F01882E912C959487944D
:100C1000959487949594879495948794F40192A1E0
:100C20008F7044244394512C01C0440C8A95EAF7F8
:100C3000892F842582A38DE791E00E947F05F6012C
:100C4000219131916F0182279327082319230227CD
:100C50001327F40182A1482642A2F7012191319184
:100C60007F012027312720FF03C080910101888365
:100C700021FF03C080910101898322FF03C080917D
:100C800001018A8323FF03C0809101018B8324FF2C
:100C900003C0809101018C8325FF03C08091010175
:100CA0008D8326FF03C0809101018E8327FF03C03F
:100CB000809101018F8330FF03C0809101018887FB
:100CC00031FF03C080910101898732FF03C0809109
:100CD00001018A8733FF03C0809101018B87F301F3
:100CE000019311933F0133942C96F4E03F1250CFBF
:100CF000DF91CF911F910F91FF90EF90DF90CF90F8
:100D0000BF90AF909F908F907F906F905F904F902B
:100D10003F90089581508B8774CF81508A876DCF23
:100D20008150898766CF815088875FCF81508F83BC
:100D300058CF81508E8351CF81508D834ACF8150BF
:100D40008C8343CF81508B833CCF81508A8335CFB6
:100D500003E010E021E025CF80917C01882331F071
:100D600010927C018DE791E00E94AA058DE791E049
:100D70000C9415041F920F920FB60F9211248F93AB
:100D800081E080937C018F910F900FBE0F901F9098
:100D9000189585B7806885BF85B7806885BF089539
:100DA000EF92FF920F931F93CF93DF9300D0CDB7B5
:100DB000DEB79A838983062FF42E122F643008F051
:100DC00049C02BE0241708F445C0812F8270E82E1B
:100DD00011FF19C010FD17C089819A81009711F089
:100DE00016FF05C06F2D802F0E9492070CC02CE0CB
:100DF000629FF0011124E40FF11DEE0FFF1FEA5076
:100E0000FE4F918380834F2D602F8DE791E00E94EC
:100E10006A05882351F010FF69C0E11067C04F2DAB
:100E2000602F8DE791E00E944C0529813A8180E096
:100E300090E02817390771F48CE0089FF001112425
:100E4000EF0DF11DEE0FFF1FEA50FE4F80819181E3
:100E50009A838983212F4F2D602FCE0101960E9406
:100E6000EF02892B09F042C0212F4F2D602F89817D
:100E70009A810E9400099A83898320E030E08217DA
:100E80009307A1F1F9800A8106FF1AC007FD2EC061
:100E900003FF07C011FF2AC08F2D902F0E94920ED2
:100EA00025C000FF23C011FD21C010FF1FC08F2DE2
:100EB000902F0E949C0E8F2D902F0E94A10E16C085
:100EC000812F817011FF0AC0811102C061E001C051
:100ED00060E08F2D902F0E94BE0D08C0882331F056
:100EE00017FF04C08F2D902F0E94100E0F900F90AF
:100EF000DF91CF911F910F91FF90EF90089550E0F7
:100F00009CE0699F400D511D1124FA0190E3899FD7
:100F1000E00DF11D1124EE0FFF1FE455FF4F8591E9
:100F200094910895CF93DF93462F262F30E09CE0D5
:100F3000899FF0011124EF01C20FD31FCC0FDD1FD9
:100F4000CA50DE4FEA53FE4FDF01A20FB31FE091FC
:100F50000201F0910301682F8C9109959983888390
:100F6000DF91CF9108950F931F93809100018150DD
:100F700040915702509158026091590270915A0263
:100F8000882389F08A019B01082E04C03695279595
:100F9000179507950A94D2F700FF03C08093560275
:100FA00004C08150EDCF109256021F910F91089509
:100FB0000F931F934091570250915802609159022C
:100FC00070915A028A019B0104C0369527951795A6
:100FD00007958A95D2F7D901C80181701F910F91A9
:100FE0000895DF92EF92FF920F931F93CF93DF93B9
:100FF00080E3E6ECF1E0DF011D928A95E9F77F01DD
:10100000D0E000E010E0D02EC09156021C16B4F4DF
:101010008C2F0E94D807882379F0E0910201F0918B
:1010200003014D2D6D2F8C2F0995019629F0F701A5
:10103000E00FF11FC08302C0C150E8CF0F5F1F4F08
:101040000C30110501F7DF5F2CE0E20EF11CD4300B
:10105000C1F6DF91CF911F910F91FF90EF90DF903C
:1010600008950F931F9300915702109158022091F9
:10107000590230915A02B901A801082E04C0769590
:101080006795579547950A94D2F740FF28C041E0ED
:1010900050E060E070E0082E04C0440F551F661F4A
:1010A000771F0A94D2F7409550956095709540232C
:1010B0005123622373234093570250935802609345
:1010C000590270935A0290915602891302C00E94ED
:1010D000B3070E94F1071F910F910C9459031F91C0
:1010E0000F910895CF9390910001891780F5C82F33
:1010F0000E94D80781112BC081E090E0A0E0B0E011
:101100000C2E04C0880F991FAA1FBB1F0A94D2F788
:1011100040915702509158026091590270915A02C1
:10112000842B952BA62BB72B8093570290935802B4
:10113000A0935902B0935A02809156028C1710F472
:101140000E94B3070E94F107CF910C945903CF91ED
:10115000089510925702109258021092590210925C
:101160005A020C947208809156028F5F0C94720898
:10117000809156020C943108CF93C82F862F82702D
:10118000CA3248F1CA52C13289F0C232C9F4617020
:10119000882329F0611103C0CF910C94B308662312
:1011A00069F181112BC0CF910C94B808617088232C
:1011B00011F06623C1F3662309F181111FC0ECCF42
:1011C000882331F08C2F0E94D807811117C012C0DC
:1011D00060FD0CC013C0882389F060FD0FC08C2F08
:1011E0000E94D807882331F0CC2321F08C2FCF9197
:1011F0000C9431088C2FCF910C947208CF910895E4
:10120000943429F4622F0E94BC0880E090E0089595
:101210000F931F93CF9390915D02891718F080E090
:1012200090E01CC09CE0699FB001112490E3899F6D
:10123000600D711D1124640F711D660F771F0091E1
:101240005E0210915F02060F171FC8010E94591D10
:10125000C82FC80101960E94591D9C2FCF911F9144
:101260000F91089590915C02891718F40E947F07EE
:101270000895891B0E9408090895FF920F931F93F8
:10128000CF93DF93EC01F62E08811981C8010E94EB
:10129000591DF81621F06F2DC8010E94611DCE0165
:1012A000DF91CF911F910F91FF90089582E692E018
:1012B0000E94AE0A8091000180935C0280E090E081
:1012C000089580935D0220E6829FC00111240E9450
:1012D000E50A90935F0280935E0208958093000177
:1012E0009091650297FF03C028E039E007C0909114
:1012F0005C02980F9093000122E339E030930301E0
:10130000209302010C946109FF920F931F93CF93D6
:10131000DF9300D0CDB7DEB7F62E672F8C01000F1C
:10132000111F80915E0290915F02800F911F9A833E
:101330008983CE0101960E943D0980915E029091C1
:101340005F020196080F191F1A8309836F2DCE01C2
:1013500001960E943D090F900F90DF91CF911F9150
:101360000F91FF900895EF92FF920F931F93CF93E9
:10137000DF93082F7B01C0E0C017D9F0D0E010E068
:10138000412F6D2F8C2FF70109954AE050E0BC01E9
:101390008AE593E00E94AA1660E28AE593E00E9443
:1013A00030161F5F1C3061F7DF5FD43041F7CF5F2D
:1013B000E3CFDF91CF911F910F91FF90EF900895B0
:1013C000CF93DF93EB014EE053E08BE692E00E9477
:1013D000A70C811187C047E050E066E073E0CE01C2
:1013E0000E943E1D892B09F07DC027966BEF72E0AD
:1013F000CE010E94351D892BB9F58AE593E00E9444
:101400000D140A9789F46091650267FB662760F9FD
:101410004AE050E08AE593E00E94A31660E28AE584
:1014200093E00E94301661C041E060E070E08AE520
:1014300093E00E942017C62F862F0E94370B8091C1
:101440005D0280930001CC2319F088E099E007C089
:1014500090915C02890F8093000182E399E0909360
:1014600003018093020141C063EF72E0CE010E944C
:10147000351D892B29F46FE777E080915C0214C059
:101480006CEE72E0CE010E94351D892B59F58AE57C
:1014900093E00E940D140A9719F0C0E0D0E01BC041
:1014A00068E079E080915D020E94B3091EC08091DE
:1014B0005D0220E3829FC0011124C817D907A8F458
:1014C00041E060E070E08AE593E00E942017CE01E1
:1014D0000E94840921968AE593E00E940D140A97E0
:1014E00021F0E5CF80E090E002C081E090E0DF9164
:1014F000CF9108954AE050E0682F8AE593E00E947A
:10150000A31660E28AE593E00C943016EF92FF9206
:101510000F931F93CF93DF9300D0CDB7DEB785E64F
:10152000E82E82E0F82E00E010E0F70161917F01E3
:101530001A830983CE0101960E943D090F5F1F4F58
:101540000430110591F785E692E00F900F90DF913E
:10155000CF911F910F91FF90EF9008950F931F93DC
:10156000CF93DF9305E612E0C0E0D0E0CE010E9409
:10157000591DF80181938F012196C430D105B1F72F
:10158000809166028F3F71F480916502982F9F775A
:101590009F3719F487FD1092650281E080936602FF
:1015A0000E94860A80E090E0DF91CF911F910F9119
:1015B000089580916302882329F0809167029091B9
:1015C0006802089580E090E008950F931F93CF93F1
:1015D000DF9300D0CDB7DEB79A8389838091630211
:1015E000811116C0009104011091050189819A8131
:1015F000800F911F909305018093040142E0BE018A
:101600006F5F7F4F89E692E00E947D0CC80102C0A7
:1016100080E090E00F900F90DF91CF911F910F919C
:1016200008950E94860A81E0809364020895CF9312
:10163000C82F80910001C81758F48C2F0E94A90868
:101640008091650280789C2F9F77892B809365021B
:10165000CE3730F08091650280788E678093650286
:101660000E94110B809165028F77CF910895909120
:10167000650280FB97F990936502892F8F778F37EA
:1016800021F490789E67909365020C94110B81E091
:101690008093630260E189E692E00E94640C80918D
:1016A0006602813019F01092640208952091670259
:1016B000309168028091690290916A022F3F4FEF4A
:1016C000340739F490936802809367020E94110BEB
:1016D00003C02817390751F4809165028F77282FAE
:1016E00030E02E37310514F40C94A9080895809148
:1016F0006302811102C00E94470B80E090E00895D0
:10170000CF93DF93EB0141EA53E08BE692E00E9436
:10171000A70C811128C049E050E067E973E0CE01D1
:101720000E943E1D892BF9F429966AE873E0CE01E8
:101730000E94351D892BA9F163E873E0CE010E9458
:10174000351D892B09F442C06BE773E0CE010E947E
:10175000351D892B09F444C067E773E0CE010E9470
:10176000351D892B19F080E090E040C00E94D90A15
:10177000EC016091690270916A024AE050E08AE5EA
:1017800093E00E94AA1665E773E08AE593E00E9461
:101790000C164AE050E0BE018AE593E00E94AA16CA
:1017A00023C08AE593E00E940D140A9721F48091EA
:1017B00065028F7717C041E060E070E08AE593E052
:1017C0000E942017862F0E94170B0EC08091640282
:1017D0000E94C30C60E28AE593E00E94301604C0C8
:1017E000809166020E947A0A81E090E0DF91CF91B9
:1017F00008950F931F93CF93DF9300D0CDB7DEB73B
:101800008B0149E553E08BE692E00E94A70C811121
:101810000EC069E473E0C8010E94351D892BF1F008
:101820006DE373E0C8010E94351D892B19F080E03B
:1018300090E043C0809104019091050160E074E064
:10184000681B790B4AE050E08AE593E00E94AA16F3
:1018500060E28AE593E00E9430162DC08AE593E0AD
:101860000E940D1400E010E00A97F9F4C8010E94EC
:10187000591D0E947A0A0F5F1F4F011584E0180757
:10188000A9F719C041E060E070E08AE593E00E94AA
:1018900020171A830983CE0101960E943D090F5F2C
:1018A0001F4F011584E0180731F08AE593E00E948C
:1018B0000D140A9739F781E090E00F900F90DF91B7
:1018C000CF911F910F910895FC01208131812170EA
:1018D000332781E0861770F44081518156954795F2
:1018E00051834083220F331F41705527242B352B02
:1018F0008F5FF0CF318320830895DC01FB014150DD
:1019000000F1519168E070E081E02D913C911197D8
:10191000952F982311F4932F02C0932F9095991F20
:101920009927991F220F331F992319F095E0292732
:10193000305811963C932E93880F6150710929F706
:10194000DECF089510926A02109269020895CF9333
:10195000DF93CB01EA0165EF73E00E94351D892B0F
:1019600039F4BE018AE593E00E943B1681E001C094
:1019700080E0DF91CF91089540EF53E00E94A70CE3
:1019800080E090E00895811103C065EE73E002C02D
:101990006BEE73E08AE593E00C940C168AE593E015
:1019A0000E942614892B59F08AE593E00E940D14B9
:1019B0000A9729F08AE593E00E943614F5CF08953E
:1019C000EF92FF920F931F93CF938AE593E00E94CB
:1019D0002614892BD9F10CE612E0C0E0CF5F8AE52E
:1019E00093E00E9436147801F80180838AE593E041
:1019F0000E940D140A9741F00F5F1F4FF70180817D
:101A0000803211F0C03251F78C2F90E0FC01E55983
:101A1000FD4F2081203219F0FC01E459FD4F108266
:101A20008CE692E00E9435036AEF73E08AE593E06A
:101A30000E943B160E94CE0C8AE593E00E940D1492
:101A40000A9721F48AE593E00E94361480E090E042
:101A5000CF911F910F91FF90EF9008950F93DB01AD
:101A60008D919C919C012D52314D2A32310518F0F7
:101A700080E090E044C0202F2170302F327001FFB1
:101A80001DC021111BC08D52909193029F5F9093B6
:101A9000930267E00E94E71CE82FF0E0E357FD4F58
:101AA00026E030E0291B310981E090E001C0880F79
:101AB0002A95EAF79081892B80831FC02223E9F0C1
:101AC00031111BC080919302815080939302811148
:101AD00014C080918D02806880938D0246E050E0B2
:101AE0006DE872E08AE593E00E94431486E0EDE839
:101AF000F2E0DF011D928A95E9F781E090E00F9115
:101B0000089585EF92E00E94D61287E992E00C9446
:101B10000910CF93C82F87E992E00E94720F6C2FB3
:101B2000811105C087E992E0CF910C94A30F85EF56
:101B300092E0CF910C947612CF93C82F83FF04C00C
:101B400081EE90E00E94890DC0FF04C080EE90E01D
:101B50000E94890DC1FF04C082EE90E00E94890DB1
:101B6000C2FF04C086EE90E00E94890DC4FF04C04D
:101B700083EE90E00E94890DCF910895CF93DF937B
:101B8000D82FC92F907C662399F0809194028111FF
:101B900002C010929602809196028C2B809396023E
:101BA000911104C080E28D0F883020F0D093940210
:101BB000911108C080E28D0F883020F48C2F0E9494
:101BC0009C0D05C0809195028C2B809395028D2FE2
:101BD0009C2FDF91CF910C94890DCF93C82F87E96B
:101BE00092E00E94720F6C2F811105C087E992E08C
:101BF000CF910C94CB0F85EF92E0CF910C949D1276
:101C000087E992E00E9402101092940210929502CD
:101C100085EF92E00E94C61287ED92E00C94AD1120
:101C2000CF93DF93D82FC92F809196028927809375
:101C30009602892F807C21F480E28D0F883058F045
:101C4000809194028D1302C01092940280919502AB
:101C50008C2780939502C3FF04C081EE90E00E9420
:101C6000ED0DC0FF04C080EE90E00E94ED0DC1FFBD
:101C700004C082EE90E00E94ED0DC2FF04C086EE2B
:101C800090E00E94ED0DC4FF04C083EE90E00E943E
:101C9000ED0D8D2F9C2FDF91CF910C94ED0D909138
:101CA00095028091960289230E949C0D87E992E01B
:101CB0000E94720F60919402811116C0662381F018
:101CC00087E992E00E94CB0F87E992E00E94750FAE
:101CD0006091940287E992E00E94A30F109294020F
:101CE00087E992E00C94750F662381F085EF92E00E
:101CF0000E949D1285EF92E00E941612609194025C
:101D000085EF92E00E9476121092940285EF92E0A5
:101D10000E94161287ED92E00C94C01187ED92E0BC
:101D20000C94E611BC01737087ED92E00C9498114D
:101D30008DE393E00C941D13682F8DE393E00C94D6
:101D40001F138DE393E00C941B13FC0182818F5BC6
:101D5000FB01808381E00895CF93DF93CDB7DEB799
:101D600069970FB6F894DEBF0FBECDBFFC01DB0153
:101D70009C919F5F9C93BE016F5F7F4F89E1DB0168
:101D80001D928A95E9F729E0298384E08A8391E00E
:101D90009D8383E08E839F8398872A8721E22B8708
:101DA0009C879D879F8722E2288B2FE3298B27E042
:101DB0002B8B25E02C8B8E8B20E430E0388F2F8B03
:101DC000998F82818B83838180688D8B49E150E07C
:101DD00080E00E94601969960FB6F894DEBF0FBECE
:101DE000CDBFDF91CF910895FC01DB01828190E0AE
:101DF00014962D913C91159782179307E1F5119652
:101E00008C9111979C91913A61F4813091F18330DA
:101E100011F4848D03C0823071F5858D8093F100BB
:101E200028C0913241F58B3021F412968C91848F29
:101E300020C08A3011F4158E1CC08930E1F4CF0126
:101E400016962D913C91179713964C91423039F488
:101E50002130310581F461E070E04E9608C04130D8
:101E600051F42830310539F468E070E00B960E9497
:101E7000871981E0089580E00895FC01DB018C91D1
:101E80008138B9F413968C911397823291F4828140
:101E900090E014962D913C9115972817390749F435
:101EA0008285848F4FE350E06EEF73E080E80C94FE
:101EB000601980E090E00895FC0181E084838583CF
:101EC0009F01255E3F4F37832683118610862DE2C2
:101ED00031E0318320838287848F858F168E81EC59
:101EE000838F0895FC01848D0895EF92FF920F93E4
:101EF0001F93CF93DF938C01EC012B967C0183E140
:101F0000E80EF11C48E050E0BE01C7010E944C1DE4
:101F1000892B81F0F801838148E050E0BE018064A4
:101F20000E94B11828E0FE01D70101900D922A9578
:101F3000E1F702C08FEF9FEFDF91CF911F910F91DB
:101F4000FF90EF90089520E2260F283058F441E0EA
:101F500050E001C0440F2A95EAF7FC012385422B8B
:101F6000438716C0FC013D9620E030E041916417A4
:101F700079F0411105C0FC01E20FF31F658708C02D
:101F80002F5F3F4F2630310589F780E090E00895BC
:101F900081E090E0089520E2260F283068F4622F57
:101FA00021E030E001C0220F6A95EAF72095FC019C
:101FB00033852323238723C0FC01AC014A5F5F4F95
:101FC000DC011D962C911D97621303C01D961C9277
:101FD0001D9711964A175B07A1F720E0358533233B
:101FE00051F0DC01A20FB11D1D966C911D971D963D
:101FF0003C9365872F5F3196E417F50779F781E009
:1020000090E008950B9628E0FC0111922A95E9F7DB
:102010000895CF93DF93EC010E94E315BE010E9467
:102020009C15CE010E940210CE01DF91CF910C943D
:10203000750F87E992E00C945C0FFB018BE68083BF
:1020400082E6818389E682838FE6838380E38483CB
:1020500081E3858386E00895CF93DF93CDB7DEB724
:1020600069970FB6F894DEBF0FBECDBFFC01DB0150
:102070008C918F5F8C93BE016F5F7F4F89E1DB0195
:102080001D928A95E9F729E0298384E08A8391E00B
:102090009D8383E08E832A8721E22B879C879D87FF
:1020A0009F8722E2288B27E02B8B25E02C8B8E8BC1
:1020B00020E430E0388F2F8B998F82818B83958538
:1020C0008685998B8A8B838180688D8B49E150E06E
:1020D00080E00E94601969960FB6F894DEBF0FBECB
:1020E000CDBFDF91CF910895CF93DF93FC01DB014A
:1020F000828190E014962D913C9115978217930759
:10210000A9F511969C9111978C91813A31F481E057
:10211000913069F1933051F52AC0813239F59B3005
:1021200021F412968C91878705C09A3029F4129673
:102130008C91808B81E01BC09930C1F4EF01169621
:102140008D919C9117978230910539F462E070E08F
:10215000CF0141960E94871909C0019739F461E0C7
:1021600070E0CF0142960E948719198A80E0DF91C2
:10217000CF910895EF92FF920F931F93CF93DF9328
:10218000FB012081213851F52381223239F5DC0110
:1021900012962C9130E04481558142175307F1F497
:1021A000EC010B851C85E12CF12C0115110591F03A
:1021B000F801448155816281738180E80E94601931
:1021C0008F3FFFEF9F0769F0E80EF91ED8010D91D0
:1021D0001C91EBCF81E08F87C70105C080E090E0C4
:1021E00002C08FEF9FEFDF91CF911F910F91FF9072
:1021F000EF900895FC01A385B485109719F47487B6
:10220000638709C08D919C911197009711F0DC01B3
:10221000F9CF6D937C9325853685DB0114968D91DE
:102220009C911597820F931F968785870895AF928B
:10223000BF92CF92DF92EF92FF920F931F93CF93B3
:10224000DF931F92CDB7DEB77C0169836A01590124
:1022500041E050E0BE016F5F7F4FFC0183810E942F
:10226000B1188C0197FD0BC0F7018381A501B60160
:1022700080640E94B11897FD02C0800F911F0F90DB
:10228000DF91CF911F910F91FF90EF90DF90CF9052
:10229000BF90AF900895CF93DF93EC0181E08C83E2
:1022A0008D839E01265F3F4F3F832E8319861886BC
:1022B00029E331E0398328831C861B861E861D8610
:1022C0008F87888B198A1A8A81EC8A870E94E31586
:1022D000BE01DF91CF910C949C158091C9028111B0
:1022E00007C086EB92E00E944B1181E08093C90207
:1022F00086EB92E008958091E702811113C010925D
:10230000D2021092D1028DE394E09093D402809394
:10231000D30289E190E09093D6028093D50281E0C8
:102320008093E7020E946D1161ED72E00C94FA1047
:10233000DC0120E030E04D915D91452B41F4220F0E
:10234000331FFC01E20FF31F7183608308952F5F39
:102350003F4F2430310579F7089528E0FC011192B0
:102360002A95E9F70895CF93DF93EC010E946D1150
:1023700028E030E0AE0164E0DF91CF910C941711BA
:102380000F931F93CF93DF93EC018C01085F1F4FD6
:1023900048E050E0BC01C8010E944C1D892B51F05F
:1023A000CE010E94B31188E0FE01D80101900D9288
:1023B0008A95E1F7DF91CF911F910F91089528E061
:1023C000FC0111922A95E9F70C94C0110C94DF11CD
:1023D00087ED92E00C947B1180912F03811113C043
:1023E0001092F0021092EF0286E594E09093F202D0
:1023F0008093F10281E490E09093F4028093F302E1
:1024000081E080932F030E946D116FEE72E00C94B7
:10241000FA10CF93DF93EC010E946D112DE130E0B3
:10242000AE0168E0DF91CF910C941711EF92FF920B
:102430000F931F93CF93DF93EC017C018DE1E80EA6
:10244000F11C4DE150E0BE01C7010E944C1D892BDB
:1024500009F443C00D8D1881802F80958123B1F040
:102460004CE150E0BE016F5F7F4FCE014E960E945F
:102470004C1D892B59F01D8F0E946D112DE130E00C
:10248000A70168E00E9417110D8F19C0812F809558
:102490008023A9F04CE150E0BE016F5F7F4FCE0179
:1024A0004E960E944C1D892B51F008830E946D119D
:1024B0002DE130E0AE0168E00E9417111883CE01D3
:1024C0000E9409121816190654F42DE1FE01D701D5
:1024D00001900D922A95E1F702C08FEF9FEFDF91F7
:1024E000CF911F910F91FF90EF9008956E3D90F462
:1024F000262F269526952695FC01E20FF11D677083
:1025000081E090E001C0880F6A95EAF79181892BFC
:1025100081830DC0605E683068F421E030E001C066
:10252000220F6A95EAF7FC013081232B208381E09A
:1025300090E0089580E090E008956E3D98F4262F95
:10254000269526952695FC01E20FF11D677081E026
:1025500090E001C0880F6A95EAF780959181892300
:1025600081830EC0605E683070F421E030E001C00D
:10257000220F6A95EAF72095FC01308123232083FE
:1025800081E090E0089580E090E008952DE1FC0165
:1025900011922A95E9F70895CF93DF93EC010E94F9
:1025A000C612CE01DF91CF910C9409120C94CC127B
:1025B00085EF92E00C94EC1180913E03811113C0E1
:1025C000109238031092370387E994E090933A030E
:1025D0008093390388E190E090933C0380933B0320
:1025E00081E080933E030E946D1167E373E00C94D9
:1025F000FA100F931F93CF93DF93EB018A010E9490
:102600006D119801AE0165E0DF91CF911F910F919F
:102610000C941711CF93DF931F92CDB7DEB71982B9
:1026200041E050E0BE016F5F7F4F0E94F9120F90B2
:10263000DF91CF9108950C940A130C940A13CF9351
:10264000DF931F92CDB7DEB76983633829F487EB38
:1026500093E00E94A91B07C041E050E0BE016F5FFC
:102660007F4F0E94F9120F90DF91CF9108958DE373
:1026700093E00C94DC12CF93DF93CDB7DEB769976C
:102680000FB6F894DEBF0FBECDBFFC01DB019C91FD
:102690009F5F9C93BE016F5F7F4F89E1DB011D92BD
:1026A0008A95E9F729E0298384E08A8391E09D8374
:1026B00083E08E832A8721E22B879C879D879F87D3
:1026C00022E2288B25E3298B27E02B8B25E02C8B1E
:1026D0008E8B20E430E0388F2F8B998F82818B8313
:1026E000838180688D8B49E150E080E00E94601911
:1026F00069960FB6F894DEBF0FBECDBFDF91CF91C4
:102700000895FC01838180640C94B1180A970C949D
:102710008113FB0120812138B9F423812232A1F4F5
:10272000DC0112962C91129730E0448155814217BA
:10273000530751F421E052962C9345E350E06FEAA1
:1027400074E080E80C94601980E090E00895DC016A
:10275000FB0112968C91129790E0248135818217AB
:102760009307D1F491818081813A31F481E09130F5
:1027700091F0933089F411C0813271F49B3021F4CF
:10278000828152968C9305C09A3031F4828153969F
:102790008C9381E00895089580E00895CF93DF93AE
:1027A000EC0181E08C838D839E012F5E3F4F3F8340
:1027B0002E83198618861D861C861F861E86188AFB
:1027C00025E431E03983288323E531E03B872A87FC
:1027D0008A8B8B8B81EC898B0E94E315BE01DF9184
:1027E000CF910C949C1586E493E00C94CE13CF9378
:1027F000DF931F92CDB7DEB76983DC01ED91FC91C9
:102800000280F381E02D41E050E0BE016F5F7F4F19
:1028100009950F90DF91CF910895CF93DF93EC014D
:102820008C859D8597FF05C082E00E9480189D875A
:102830008C878C859D85DF91CF91089583E00E94E0
:10284000971890E0089583E00C94141BFC01848594
:10285000958597FD06C082E00E942C1890E00196B5
:10286000089582E00E942C1890E00895FC01848570
:10287000958597FD05C02FEF3FEF35872487089595
:1028800082E00C948018CF93DF93EC0180911101CA
:10289000882331F083E00E94B1181816190634F02D
:1028A00081E090E09B838A8380E090E0DF91CF918C
:1028B0000895EEEFFFE72591349181E02B3F3C4DE9
:1028C00009F080E00895FC0190819E5F908342E4CE
:1028D00050E064EE74E080E80C946019FC018181A2
:1028E0009081913A59F4813209F065C047E050E097
:1028F0006AE071E080E00E9460195BC0913209F0EB
:102900005AC0833269F482819381A0E0B0E0809361
:10291000060190930701A0930801B093090149C0F3
:10292000803239F467E070E08AE091E00E94871914
:1029300040C0823209F03DC08281809311010E9423
:102940005914882319F0EEEFFAE002C0E0E0F8E055
:1029500080910A0190910B01A0910C01B0910D01A1
:10296000803B9440A105B10541F58091110180FDA6
:1029700024C0EE3F8AE0F80751F0808191818737CB
:1029800027E7920721F09093FF0A8093FE0A87E7DA
:1029900097E791838083809160008093AA039BE0F6
:1029A00088E10FB6F894A895809360000FBE9093CD
:1029B000600081E0089580E00895808191818737EB
:1029C0009747B9F7A895809160008861809360006F
:1029D0008091AA0380936000EE3F8AE0F80739F007
:1029E0008091FE0A9091FF0A91838083E2CF10923A
:1029F000FF0A1092FE0ADDCF2FEF3FEFFC01358773
:102A000024870895EAE5F3E01382128288EE93E0CA
:102A1000A0E0B0E084839583A683B78389E591E045
:102A2000918380838FEF9FEF958784870895EF923E
:102A3000FF920F931F93CF93DF937B01FC01C28121
:102A4000D38100E010E0209781F0E881F9810280D5
:102A5000F381E02DB701CE01099597FD08C0080F5D
:102A6000191F0884D985C02DEECFC80102C08FEF91
:102A70009FEFDF91CF911F910F91FF90EF900895FD
:102A80000F931F93CF93DF938B01FC01C281D381FE
:102A9000209771F0E881F9810480F581E02DB8017B
:102AA000CE010995009731F40884D985C02DF0CF67
:102AB00080E090E0DF91CF911F910F9108950F93E7
:102AC0001F93CF93DF938B01FC01C281D3812097A9
:102AD00071F0E881F9810680F781E02DB801CE011F
:102AE0000995080F111D0884D985C02DF0CFF80174
:102AF0001082DF91CF911F910F9108950F931F9333
:102B0000CF93DF938B01FC01C281D381209771F0B9
:102B1000E881F9810190F081E02DB801CE0109959D
:102B2000811105C00884D985C02DF0CF80E0DF91E8
:102B3000CF911F910F910895CF93DF93FC01DB019B
:102B4000218114968C91149790E0820F911D089723
:102B5000A4F5C281D381209719F47383628308C0DE
:102B600088859985009711F0EC01FACFB987A8877D
:102B7000808112968C931297818113968C93139770
:102B8000908115968C911597890F808380E014961B
:102B90009C911497891798F41696CD91DC9117970C
:102BA000C80FD11D9881C181D0E0CE5EDE4F9883E1
:102BB00091819F5F91838F5FEACF80E001C081E0C8
:102BC000DF91CF9108958091AF0381110DC082E014
:102BD0008093AB0384E08093AC031092AE03109219
:102BE000AD0381E08093AF038BEA93E00895611514
:102BF000710579F0FB0101900020E9F73197AF01F1
:102C0000461B570BDC01ED91FC910280F381E02D16
:102C1000099480E090E00895EF92FF920F931F9344
:102C2000CF93DF938C017B01C0E0D0E0F701EC0F84
:102C3000FD1F6491662361F0D801ED91FC91019034
:102C4000F081E02DC8010995892B11F02196EECF76
:102C5000CE01DF91CF911F910F91FF90EF900895DA
:102C6000DC01ED91FC910190F081E02D099467E683
:102C700071E00C94F7150F931F93CF93DF93EC0142
:102C80000E940C168C01CE010E943716800F911FF6
:102C9000DF91CF911F910F9108958F929F92AF92E4
:102CA000BF92EF92FF920F931F93CF93DF93CDB715
:102CB000DEB7A1970FB6F894DEBF0FBECDBF7C0183
:102CC000FA01CB0119A2223008F42AE08E010F5D2F
:102CD0001F4F822E912CA12CB12CBF01A501940174
:102CE0000E94F31CF901CA01015011096A3014F461
:102CF000605D01C0695CD8016C93232B242B252BCC
:102D000061F7B801C7010E94F715A1960FB6F894B4
:102D1000DEBF0FBECDBFDF91CF911F910F91FF900E
:102D2000EF90BF90AF909F908F900895211531053F
:102D300041F4DC01ED91FC910190F081E02D642FD4
:102D400009940C944D169A01462F50E060E070E013
:102D50000C9496169A01AB0160E070E00C94961604
:102D60000F931F93CF93DF93EC010E94231C68877E
:102D700079878A879B87E881F9810484F585E02D2E
:102D8000CE01099597FF17C00E94231C088519855D
:102D90002A853B85DC01CB01801B910BA20BB30B79
:102DA0000C811D812E813F8180179107A207B307F7
:102DB00010F38FEF9FEFDF91CF911F910F91089547
:102DC000FF920F931F93CF93DF93EC018B01F42EAF
:102DD000CE010E94B01697FD2DC08D32910519F1DC
:102DE0009C01205331092A30310520F1FF2019F0D0
:102DF0008E329105D1F001301105D1F0023011056C
:102E000051F48D30910539F024F40997029718F0A8
:102E10000FC0809769F4E881F9810284F385E02D81
:102E2000CE010995D5CF8DE201C08EE290E002C0BF
:102E30008FEF9FEFDF91CF911F910F91FF9008953A
:102E4000BF92CF92DF92EF92FF920F931F93CF9397
:102E5000DF938C01C42F40E00E94E016FC0197FD37
:102E600047C0C12CD12C7601B12C0C2E000CDD0BEF
:102E7000EC17FD0709F1ED32F105E1F0CF01C09744
:102E80000A97D0F4AAE0B0E0A70196010E94151DB0
:102E90006F01FF0FEE08FF08DC01CB018C0D9D1DBB
:102EA000AE1DBF1D6C017D0120E3C21AD108E108EF
:102EB000F10802C0BB24B394D801ED91FC910284C7
:102EC000F385E02DC8010995C8010E94B016FC01E8
:102ED000C0970A9768F2CE17DF0751F2BB2061F066
:102EE00066277727CB016C197D098E099F0906C0DB
:102EF00060E070E0CB0102C0C701B601DF91CF9165
:102F00001F910F91FF90EF90DF90CF90BF900895A9
:102F10004091BA035091BB032091B8033091B9039B
:102F200042175307B4F49091E8009570E1F3909143
:102F3000E80092FD19C08093F1008091BA0390914E
:102F4000BB0301968F739927892B19F48EEF809319
:102F5000E8008091BA039091BB0301969093BB0364
:102F60008093BA0381E0089580E00895DF92EF92A4
:102F7000FF920F931F93CF93DF93D82EF92EE42E59
:102F8000062F10E0C8010196880F0E94881783E081
:102F90000E948817CD2DDF2D0C0F1D1FC017D107E4
:102FA00089F0E7FE03C0FE01849101C088810E9480
:102FB0008817F82E80E00E9488178F2121968111B2
:102FC000EDCF01C081E0DF91CF911F910F91FF9074
:102FD000EF90DF9008958091D70081608093D700B3
:102FE00080EA8093D80089B5806189BD89B5826007
:102FF00089BD09B400FEFDCF61E070E080E090E0A3
:103000000E94541C8091D8008F7C80618093D800EE
:103010008091E000807F8093E0000895CF93DF935C
:103020001F92CDB7DEB71982CE0101960E946314BC
:103030000E94E315BE016F5F7F4F0E9417158981C3
:103040000F90DF91CF9108952FB7FC012083F89462
:1030500067706093E9000895CF93DF931F92CDB717
:10306000DEB7682FCE0101960E9424188091F200ED
:1030700099819FBF0F90DF91CF910895EF92FF92BA
:103080000F931F93CF93DF931F92CDB7DEB790912D
:10309000BE03992311F057FF03C08FEF9FEF28C0A5
:1030A0008A017B01682FCE0101960E94241820918D
:1030B000F20030E0021713070CF49801822FF70199
:1030C00094E6815030F09093BF034091F10041931A
:1030D000F8CF2115310521F08091F200882321F0ED
:1030E00089818FBFC90104C08BE68093E800F8CFC7
:1030F0000F90DF91CF911F910F91FF90EF90089566
:10310000CF93DF931F92CDB7DEB741E050E0BE0111
:103110006F5F7F4F0E943E18019719F4898190E0FC
:1031200002C08FEF9FEF0F90DF91CF910895CF9363
:10313000DF931F92CDB7DEB7682FCE0101960E94B4
:1031400024189091E800892F807295FF04C0909117
:10315000F20080E4891B99819FBF0F90DF91CF918E
:1031600008955F926F927F928F929F92AF92BF92DB
:10317000CF92DF92EF92FF920F931F93CF93DF9343
:103180001F92CDB7DEB7982E6B01B42E052F80911C
:10319000BE03811103C08FEF9FEF76C08091BC0307
:1031A00080FF05C08091E00082608093E000EB2CFE
:1031B000F02EA12C8AEF882E892D8072682E892D01
:1031C0008074582E9AE3792EE114F10419F4AA20A0
:1031D00009F455C0892D0E949718182F81110AC033
:1031E0008A948820C1F261E070E080E090E00E9463
:1031F000541CEACF90E0E816F9060CF41E2D692D58
:10320000CE0101960E9424188091E80085FF34C009
:10321000812F90E0E81AF90A662029F01150A0F0F9
:103220001092F100FBCFF60197FE0AC0115050F04A
:1032300024912093F1003196F9CF21912093F10050
:103240001150D8F7C80ED91EAA2019F07092E800C4
:103250000BC08091E80085FD09C07092E800AA24A7
:10326000A394E114F10441F0A12C06C0E114F1048F
:1032700019F451107092E80089818FBFA5CF84E6C0
:103280008093C0038B2D902F0F90DF91CF911F91D2
:103290000F91FF90EF90DF90CF90BF90AF909F90F5
:1032A0008F907F906F905F9008951092E900109238
:1032B000BB031092BA039093B9038093B8030895A7
:1032C000DF92EF92FF920F931F93CF93DF93D82E4D
:1032D0008A017B01E40EF51EEB01CE15DF0571F0CE
:1032E000D7FE03C0FE01849101C088810E94881727
:1032F00021968111F2CF8FEF9FEF01C0C801DF91BE
:10330000CF911F910F91FF90EF90DF900895CF9391
:10331000DF93EC019B01B4E6ABEF21153105F1F031
:10332000A9012134310514F040E450E08091E80017
:1033300082FFFCCF942FFB01E21BF30BEC0FFD1F70
:10334000915028F08091F10080833196F9CFB093AD
:10335000BF03A093E800241B350BDFCFCB01DF9127
:10336000CF9108951F920F920FB60F921124CF9212
:10337000DF92EF92FF920F931F932F933F934F9300
:103380005F936F937F938F939F93AF93BF93EF93CD
:10339000FF93CF93DF93CDB7DEB76C97DEBFCDBF82
:1033A0001092E9008091E80083FF1FC189E0FE01CF
:1033B0007596FE2E0F2F815029F09091F100908389
:1033C0003196F9CF84E68093BF0382EF8093E800C3
:1033D0008D8987FF05C09091E80090FFFCCF03C066
:1033E0009EEF9093E800982F907609F0D7C09E89C1
:1033F0004F89588D2F89188D91110CC0803829F470
:103400008091BD038093F10002C01092F1001092F0
:10341000F100E4C0913051F48111E0C04130510518
:1034200009F0DCC08091BD038D7F0BC0933061F447
:103430008111D4C04130510509F0D0C08091BD0345
:1034400082608093BD03CAC0953049F48091E80042
:1034500080FFFCCF822F80688093E300BFC096304E
:1034600009F06FC0CB8CDC8C123069F580E090E005
:103470000E9455190E940E1899E09E012F5F3F4F40
:103480007901F901292F11922A95E9F799831A8375
:1034900091E09E8390EA98879AEF99872091BA03EA
:1034A0003091BB03275F3F4F3C832B838D83C60145
:1034B0000E94551949E050E0B70180E00E94601970
:1034C0000E940E188BC0C6010E9455190E94E31578
:1034D0006F2D702F0E944015009719F00CF07EC0E0
:1034E00081C0113009F46FC0133009F07BC08F899F
:1034F000882309F46BC0823029F440E86CE082E450
:1035000095E006C0813039F440E869E088E395E051
:103510000E94B61755C0833009F064C00E94E315BD
:103520008E010F5F1F4FB8010E945F15F8010190D7
:103530000020E9F73197BF01601B710B40E0C80123
:10354000E7CF973009F44EC0983021F481E08093A2
:10355000F10044C0993009F041C0837009F042C0C5
:10356000E3E1F1E081E031E096E32081211109C03F
:103570008EE78093EA001092EA008F898093BE0361
:103580002DC08093E9003093EB0021912093EC0053
:103590009093ED008F5F873041F7EACF8B8D9C8D44
:1035A0000E945519898D811105C08F2D902F0E9481
:1035B0006E1406C00E94E3156F2D702F0E947E15B9
:1035C000882381F00BC066E275E002C06FE475E00D
:1035D000FB01449150E080E80E9460198EEF8093D7
:1035E000E80003C081E28093EB006C960FB6F8947C
:1035F000DEBF0FBECDBFDF91CF91FF91EF91BF91A5
:10360000AF919F918F917F916F915F914F913F917A
:103610002F911F910F91FF90EF90DF90CF900F901F
:103620000FBE0F901F9018958093E9008091F200D3
:10363000882319F08AE38093E80008951F920F927F
:103640000FB60F9211242F933F934F935F936F9375
:103650007F938F939F93AF93BF93CF93EF93FF93FA
:10366000C091E1008091E100837F8093E100C3FF7E
:103670000FC01092E90081E08093EB001092EC0003
:1036800082E38093ED001092BE0388E08093F00007
:10369000C2FF15C083E00E94141B8091C0038823E1
:1036A00029F08091C00381508093C0038091BF03B3
:1036B000882329F08091BF0381508093BF03C4FF0A
:1036C00010C08091E2008E7E81608093E200809144
:1036D000E1008F7E8093E1008091BC038E7E80614B
:1036E00011C0C0FF11C08091E2008E7E8061809386
:1036F000E2008091E1008E7E8093E1008091BC0326
:103700008E7E81608093BC03FF91EF91CF91BF913A
:10371000AF919F918F917F916F915F914F913F9169
:103720002F910F900FBE0F901F9018951092BE030F
:103730001092BD031092BC030E94EB17E1EEF0E083
:1037400080818E7E80838DE08093E200559A209A5E
:1037500008958091E0008D7F8093E0008091E000EB
:1037600081FD08C08091BC0380FF04C08091BD032F
:1037700081FD02C080E008950E94EB178091E00077
:1037800082608093E00081E0089508950E94901C7B
:103790000E94C51B87EB93E00E94961B0E94660364
:1037A000C0E0D0E00E946D032097E1F30E9400008A
:1037B000F9CF1F920F920FB60F9211242F933F93C0
:1037C0008F939F93AF93BF938091C2039091C30354
:1037D000A091C403B091C5033091C10323E0230F2E
:1037E0002D3720F40196A11DB11D05C026E8230F39
:1037F0000296A11DB11D2093C1038093C203909333
:10380000C303A093C403B093C5038091C6039091F2
:10381000C703A091C803B091C9030196A11DB11DB2
:103820008093C6039093C703A093C803B093C903C2
:10383000BF91AF919F918F913F912F910F900FBEAC
:103840000F901F9018952FB7F8946091C203709154
:10385000C3038091C4039091C5032FBF08953FB760
:10386000F8948091C6039091C703A091C803B091CA
:10387000C90326B5A89B05C02F3F19F00196A11DCD
:10388000B11D3FBFBA2FA92F982F8827820F911DF6
:10389000A11DB11DBC01CD0142E0660F771F881F3D
:1038A000991F4A95D1F708958F929F92AF92BF9238
:1038B000CF92DF92EF92FF926B017C010E942F1C4E
:1038C0004B015C01C114D104E104F10401F10E9437
:1038D000E61C0E942F1CDC01CB0188199909AA095A
:1038E000BB09883E9340A105B10560F321E0C21AEF
:1038F000D108E108F10888EE880E83E0981EA11C2B
:10390000B11CC114D104E104F10419F7DBCFFF901D
:10391000EF90DF90CF90BF90AF909F908F900895E1
:10392000789484B5826084BD84B5816084BD85B59A
:10393000826085BD85B5816085BDEEE6F0E0808161
:1039400081608083E1E8F0E0108280818260808382
:10395000808181608083E0E8F0E080818160808305
:10396000E1E9F0E0808182608083808181608083F2
:10397000E0E9F0E0808181608083E1ECF0E080812B
:103980008460808380818260808380818160808385
:10399000E3ECF0E0808181608083E0ECF0E0808106
:1039A00082608083E2ECF0E0808181608083EAE7DE
:1039B000F0E0808184608083808182608083808168
:1039C0008160808380818068808308950895991B39
:1039D00079E004C0991F961708F0961B881F7A9506
:1039E000C9F780950895A1E21A2EAA1BBB1BFD0101
:1039F0000DC0AA1FBB1FEE1FFF1FA217B307E407CE
:103A0000F50720F0A21BB30BE40BF50B661F771F25
:103A1000881F991F1A9469F7609570958095909505
:103A20009B01AC01BD01CF0108950E94261DA59FF9
:103A3000900DB49F900DA49F800D911D11240895A9
:103A4000EE0FFF1F0590F491E02D0994A29FB001A5
:103A5000B39FC001A39F700D811D1124911DB29FC2
:103A6000700D811D1124911D0895FB01DC018D91C4
:103A7000059080190110D9F3990B0895FB01DC0121
:103A80004150504030F08D910590801919F400207C
:103A9000B9F7881B990B0895FB01DC0104C08D91D7
:103AA0000190801921F441505040C8F7881B990BB0
:103AB0000895F999FECF92BD81BDF89A992780B5F6
:103AC0000895262FF999FECF1FBA92BD81BD20BD62
:103AD0000FB6F894FA9AF99A0FBE01960895F894E1
:023AE000FFCF16
:103AE20006037F070400FFFFFFFF00E10000000064
:103AF200000000C18081000000F0F1F4F5F6F767E4
:103B020066363534979091929300000000F40EAC23
:103B12000E3D0FA50E0000000074102C10BA101DEF
:103B22001000000000A7133B138913A50E8113F6A2
:103B3200FF0000861300000000F71343141E142335
:103B420014261436140D140D0A006E616E00696E8F
:063B520066006F766600BC
:00000001FF
