:100000000C94AA030C94D2030C94D2030C94D20344
:100010000C94D2030C94D2030C94D2030C94D2030C
:100020000C94D2030C94D2030C94052D0C94992BB0
:100030000C94D2030C94D2030C94D2030C94D203EC
:100040000C94D2030C94D2030C94D2030C94D203DC
:100050000C94D2030C94D2030C94D2030C94C02DB4
:100060000C94D2030C94D2030C94D2030C94D203BC
:100070000C94D2030C94D2030C94D2030C94D203AC
:100080000C94D2030C94D2030C94D2030C94D2039C
:100090000C94251F0C94D2030C94D2030C94D2031D
:1000A0000C94D2030C94D2030C94D203B016B51660
:1000B000BF16C716CF16DA16DF16E416EE16A91607
:1000C000AB166C6F63616C6C79206275696C74003F
:1000D0004B6579626F617264696F204D6F64656C06
:1000E000203031202D204B616C6569646F73636F24
:1000F000706520000F6C0400007A04D8037804EACD
:10010000037604FC0364021004610210045E021012
:10011000045B02100458021004550210045202102D
:100120000474041A045B044A045F043504230425A0
:1001300004003104372738000000FFFF1E001F00B5
:100140002000210022000043E000E40001602300C1
:1001500024002500260027000144350014001A0061
:100160000800150017002B002A002C0028001C0096
:1001700018000C00120013002E004B0004001600A3
:10018000070009000A002900E300E200E6000B0076
:100190000D000E000F00330034004E001D001B0048
:1001A0000600190005002C44E100E5002C44110074
:1001B00010003600370038002D00FFFFFFFFFFFF63
:1001C000FFFFFFFFFFFFFFFFFFFFFFFF0060FFFFDD
:1001D0002400250026005600FFFFFFFFFFFFFFFF62
:1001E000FFFFFFFFFFFFFFFFFFFFFFFFFFFFFFFF1F
:1001F0002100220023005700FFFFFFFFFFFFFFFF4A
:10020000FFFFFFFFFFFFFFFFFFFFFFFFFFFFFFFFFE
:100210001E001F0020002E00FFFFFFFFFFFFFFFF5B
:10022000FFFFFFFFFFFFFFFFFFFFFFFFFFFFFFFFDE
:1002300027003700550054002800FFFF3A003B001C
:100240003C003D003E003900FFFFFFFFB6583F0075
:10025000400041004200430044002B00FFFF0150DA
:10026000FFFF4250605029504C002800CD58B5582F
:100270002F0830082F00300045004A00045002507B
:100280000850415025502A50FFFFFFFF65005000E5
:10029000510052004F00FFFFFFFF4D004600490094
:1002A000FFFF44502650FFFFFFFFFFFFFFFFE24C20
:1002B000EA5CE95CFFFF3100310803040B0C131406
:1002C0001A1B24252B2C33343B3C02050A0D121536
:1002D000191C23262A2D32353A3D0106090E111626
:1002E000181D2227292E3136393E0007080F101716
:1002F0001F1E2120282F3037383F636F6C6F726DBF
:1003000061702E6D617000637573746F6D0064654C
:100310006661756C74006F6E6C79437573746F6D84
:10032000006B65796D61702E006B65796D61702E63
:10033000637573746F6D0A6B65796D61702E64659A
:100340006661756C740A6B65796D61702E6F6E6C89
:1003500079437573746F6D00656570726F6D2E668D
:1003600072656500656570726F6D2E636F6E746582
:100370006E747300656570726F6D2E636F6E746559
:100380006E74730A656570726F6D2E6672656500B6
:100390002F006372630076657273696F6E00766119
:1003A0006C69643F0064656661756C744C61796565
:1003B000720073657474696E67732E00736574746C
:1003C000696E67732E64656661756C744C617965DE
:1003D000720A73657474696E67732E76616C6964F2
:1003E0003F0A73657474696E67732E7665727369FC
:1003F0006F6E0A73657474696E67732E637263003F
:1004000066616C736500747275650068656C700078
:1004100068656C70000D0A2E009F9FDFFB1FF1972F
:10042000793FF11F1717F9F9996FF68F6939D311D1
:10043000F1FD9BB99D9FF99F1F9FFD9FD73FFC6FCB
:100440006699F99969D9DF6996F966CFF356F496FA
:10045000B4CFF8F9881FFE16FF8F24D7EB9F8F9635
:10046000691E0834082008210822082408340026C0
:1004700008270825082E0836002D003700380027E9
:10048000003308330036082E00370838081F082FBD
:10049000003100300023082D0835002F08310830C6
:1004A0000835080000000000000000000000000007
:1004B000000000000000000000000000000000013B
:1004C0000101010101010101010101010202020218
:1004D00002020202030303030303030404040404EB
:1004E00005050505060606060707070708080809A3
:1004F00009090A0A0A0B0B0B0C0C0D0D0D0E0E0F41
:100500000F101011111212131314141515161617BB
:10051000181819191A1B1B1C1D1D1E1F2020212213
:100520002323242526272728292A2B2C2D2E2F303C
:100530003132323334363738393A3B3C3D3E3F4036
:10054000424344454648494A4B4D4E4F51525355FC
:100550005657595A5C5D5F606263656668696B6D8A
:100560006E7072737577787A7C7E7F8183858789D8
:100570008A8C8E90929496989A9C9EA0A2A4A7A9E9
:10058000ABADAFB1B4B6B8BABDBFC1C4C6C8CBCDB0
:10059000D0D2D5D7DADCDFE1E4E7E9ECEFF1F4F72C
:1005A000F9FCFF05010906A101050719E029E71576
:1005B0000025017501950881029501750881019555
:1005C0000575010508190129059102950175039129
:1005D0000195067508150025FF0507190029FF81FB
:1005E00000C0050C0901A1018504150026FF0319AF
:1005F000002AFF03950475108100C005010906A1BA
:10060000018508050719E029E71500250175019501
:10061000088102050819012908950875019102054C
:1006200007750495018101190429DD15002501755F
:100630000195D98102750395018101C00501090267
:10064000A101850105091901290815002501950851
:100650007501810205010930093109381581257FAD
:10066000750895038106050C0A38021581257F75EA
:100670000895018106C005010980A10185051500C5
:1006800026FF00190029FF950175088100C00501AA
:100690000902A1010509190129081500250195087C
:1006A0007501810205010930093116000026FF7F1E
:1006B00075109502810209381581257F750895010D
:1006C0008106C0080B0002020201000904000001BB
:1006D0000202000005240010010524010101042488
:1006E00002060524060001070581031000400904E5
:1006F0000100020A00000007050202400000070591
:10070000830240000012010002EF020140091201C1
:10071000230001010203014B6579626F6172646914
:100720006F004D6F64656C203031000403090400D4
:100730001D065D08F40A960EDE101C131C142F14FF
:100740006D15C215391634210323F323CF248B25CD
:100750009A26670811241FBECFEFDAE0DEBFCDBFB7
:1007600012E0A0E0B1E0E4E5FFE502C005900D92E3
:10077000A030B107D9F726E0A0E0B2E001C01D9299
:10078000AF32B207E1F713E0C9EAD3E004C0219722
:10079000FE010E94182FC839D107C9F70E94AD2D5C
:1007A0000C949D2F0C9400000895089508950895C9
:1007B000FC01892B69F083E991E091838083738345
:1007C00062831582148281E0868317828FEF80878F
:1007D000CF010895FC01892B69F08FE991E09183A5
:1007E0008083738362831582148281E086831782FB
:1007F0008FEF8087CF010895FC01892B79F087E87E
:1008000091E09183808373836283148281E0858386
:10081000809170029091710297838683CF01089531
:10082000009739F02BEA31E0FC0131832083738398
:1008300062830895009741F02BE731E0FC0131839A
:1008400020837383628314820895009739F025E42E
:1008500031E0FC013183208373836283FB01408399
:10086000089582EB94E00C94B41BFF920F931F93B6
:10087000CF93DF93EC018B01F42E009711F00E94CF
:10088000E812F801F082CE01DF91CF911F910F9114
:10089000FF900895FF920F931F93CF93DF93EC0186
:1008A0008B01F42E009711F00E948D10F801F08258
:1008B000CE01DF91CF911F910F91FF900895882372
:1008C00019F0813091F02FC061FF2DC060FD2BC069
:1008D00060ED70E08CE794E00E944A1762EC70E0F3
:1008E0008CE794E00E944A171EC090916702911114
:1008F00002C08093670261FF16C060FD0DC00E94B8
:100900000A2E24E230E040E050E00E94F62E6C5FB8
:100910006093020261E001C060E080910202909168
:1009200003020E946C1C80E090E00895009719F08B
:10093000029761F0089560E070E080E00E94271364
:100940000E94B01381E080936604089510926604BB
:1009500060E070E080E00E9427138091690490912C
:100960006A04DC01ED91FC910280F381E02D099491
:100970000C9496048FE294E00E94A20C88E294E02A
:100980000E944A0B8EE694E00E941B1585E694E0D7
:100990000E94B9138FEA94E00E94051B8BE994E052
:1009A0000E94861980E090E008958FE294E00E9412
:1009B0006B0D89E594E00E94220F80E090E008959D
:1009C00083E294E00E94D60A80E090E0089588E3F4
:1009D00094E00E94D40E85E694E00E94EC138CE72C
:1009E00094E00E94A0178BE994E00E94841888E9A3
:1009F00094E00E94D31780E090E008958EE694E0A2
:100A00000E9420158FEA94E00E94931B8CE794E0EB
:100A10000E949B178BE994E00E947B1880E090E095
:100A20000895E4EFF0E0849108959B0144E0849FF1
:100A3000C0011124BC016B507F4F44E050E0C9015C
:100A40000C945A2F0895CF938FE692E00E944806A7
:100A5000C1E0C093B10410920701109208018FEF1A
:100A60008093090166E98AE794E00E94331666E9FB
:100A700088E794E00E94361680910402811106C036
:100A800080E092E00E941613C093040280E092E09E
:100A900090936404809363048CE694E00E945C1657
:100AA00085E00E94620B65E083E294E0CF910C94B4
:100AB000C60A8FE692E00C946F06AF92BF92CF9277
:100AC000DF92EF92FF920F93CF93DF93EC017B01C4
:100AD0006A015901F9010081FA012081FB0140817D
:100AE000BC0185E694E00E94CA13019719F481E0E5
:100AF00090E039C0F5010081F6012081F7014081C5
:100B0000BE018BE594E00E949710019781F3F501F7
:100B10000081F6012081F7014081BE018FE594E05C
:100B20000E94F812019719F3F5010081F601208166
:100B3000F7014081BE018CE794E00E94761701978F
:100B4000B1F2F5010081F6012081F7014081BE017B
:100B50008BE994E00E94E31831E020E0019709F06E
:100B600030E0832F922FDF91CF910F91FF90EF9084
:100B7000DF90CF90BF90AF900895CF93DF9300D0D8
:100B80001F92CDB7DEB769834A832B839E012D5F09
:100B90003F4FAE014E5F5F4FBE016F5F7F4F0E94C0
:100BA0005D050F900F900F90DF91CF910895CF9337
:100BB000DF93EC016881798188E294E00E94D40B94
:100BC000019719F481E090E025C06881798188E37C
:100BD00094E00E94B00E0197A9F3688179818EE2BA
:100BE00094E00E94740D019769F3688179818DE228
:100BF00094E00E94ED0D019729F36881798183E2E9
:100C000094E00E94E50A31E020E0019709F030E02D
:100C1000832F922FDF91CF910895CF93DF9300D050
:100C2000CDB7DEB79A838983CE0101960E94D7059E
:100C30000F900F90DF91CF910895E4E6F2E020EA63
:100C4000208311821282E1E6F2E08CE8808396E450
:100C500091831282EEE5F2E082E8808334E631830C
:100C60001282EBE5F2E0108221831282E8E5F2E0E5
:100C7000108291838283E5E5F2E0108211829AEA84
:100C80009283E2E5F2E08083118288E7828308950F
:100C9000CF93DF9340E855E260E070E08FEB95E0A2
:100CA0000E9494260E94BA0484E792E00E948F0674
:100CB0000E942F1C0E943C1D0E94461D0E9490090C
:100CC000C0E0D0E06D2F8C2F0E943109DF5FD03162
:100CD000C9F7CF5FC430A9F7DF91CF9108950E9483
:100CE0000A2E609370027093710280937202909347
:100CF00073020E94D50484E792E00E94E7070E94F5
:100D0000E7040E94FD1C0E94AE1C0C94FE043F9A56
:100D1000479A08956E9A769824982C980895CF93C0
:100D2000DF93EC010FB6F894A8958091600088617C
:100D300080936000109260000FBE64E670E080E077
:100D400090E00E943B2ECE010E948706CE010E94B9
:100D50008A06188219821A821B821C821D821E82B8
:100D60001F828CE08093B800DF91CF910895E42F2B
:100D7000F0E080E1689FE00DF11D1124E654FD4F85
:100D800084910895613420F060E070E080E008957F
:100D9000E62F062E000CFF0B603244F4CF01880FC3
:100DA000991FE80FF91FEB50FD4F08C0B097CF0116
:100DB000880F991FE80FF91FE457FD4F608171817B
:100DC000828108950F931F93CF93DF9367FD43C0F4
:100DD000D42F8901C62F6032E4F40E94C206D813D2
:100DE00007C081E0171305C0061303C080E001C0EF
:100DF00081E090910101892B809301016C2FCC0F30
:100E0000770BFB01EE0FFF1FE60FF71FEB50FD4FB7
:100E10001FC0603404F50E94C206D81307C081E0E9
:100E2000171305C0061303C080E001C081E0909154
:100E30000101892B809301016C2FCC0F770B60523D
:100E40007109FB01EE0FFF1FE60FF71FE457FD4F7F
:100E500000831183D283DF91CF911F910F91089569
:100E60000F931F93E42FF0E030E1639FE00DF11D3D
:100E70001124E654FD4F6491422F98011F910F9168
:100E80000C94E20680910101882311F185EF92E034
:100E90000E94511E8CE892E00E94511E85EF92E064
:100EA0000E94511E8CE892E00E94511E85EF92E054
:100EB0000E94511E8CE892E00E94511E85EF92E044
:100EC0000E94511E8CE892E00E94511E1092010176
:100ED0000895CF93DF93EC0188819981AA81BB812A
:100EE00088879987AA87BB878C819D81AE81BF81C6
:100EF0008C879D87AE87BF8785EF92E00E94DA1DC1
:100F0000882341F085EF92E00E940D1E688379836B
:100F10008A839B838CE892E00E94DA1D882341F04B
:100F20008CE892E00E940D1E6C837D838E839F83EC
:100F3000DF91CF910895DF92EF92FF920F931F936D
:100F4000CF93DF93082FC62FD42FD22E641303C064
:100F50006623C9F0D62F10E0C0FBEE24E0F8F12C98
:100F6000C701880F991F2D2F2170282B39F04D2D87
:100F7000411B602F80E090E00E946F08C695D695D7
:100F80001F5F183049F7DF91CF911F910F91FF90AC
:100F9000EF90DF9008950F931F93CF938C01C0E0E3
:100FA000F8010F5F1F4F27E0408560818C2F0E9462
:100FB0009B072FE0F801438563818C2F0E949B07DC
:100FC000CF5FC43069F7CF911F910F910895CF93F0
:100FD000DF93EC010E946907CE01DF91CF910C9461
:100FE000CB076430C0F44031B0F4E62FF0E0242F9A
:100FF000277043FF03C0EC57FD4F02C0E857FD4F79
:1010000080E890E002C0959587952A95E2F7809553
:1010100090818923808308956430D8F44031C8F4E6
:10102000842F877070E020E830E002C03595279566
:101030008A95E2F7FB0143FF03C0EC57FD4F02C066
:10104000E857FD4F808190E02823392381E0232B4E
:1010500009F480E0089570E0E42FF0E0DC01A60FD1
:10106000B71F483028F48C9190E027E030E005C0AD
:1010700014968C9190E02FE030E02E1B3F0B02C0C5
:10108000959587952A95E2F7817008956150462FCE
:101090004F7062956F700C942B08FC016081718118
:1010A000828193810E941E2F282F64817581868101
:1010B00097810E941E2F820F089560E085EF92E0D5
:1010C0000E94C21D63E08CE892E00C94C21D8CE883
:1010D00092E00E94C11D85EF92E00C94C11DEF9239
:1010E000FF920F931F93CF93DF9300D0CDB7DEB75E
:1010F0009A838983062FF42E122F643008F049C09A
:101100002FE0241708F445C0812F8270E82E11FFCC
:1011100019C010FD17C089819A81009711F016FF40
:1011200005C06F2D802F0E9431090CC020E1629F05
:10113000F0011124E40FF11DEE0FFF1FE256FC4FEA
:10114000918380834F2D602F84E792E00E940C08EA
:10115000882351F010FF69C0E11067C04F2D602F48
:1011600084E792E00E94F10729813A8180E090E0D3
:101170002817390771F480E1089FF0011124EF0D61
:10118000F11DEE0FFF1FE256FC4F808191819A8383
:101190008983212F4F2D602FCE0101960E94BD051E
:1011A000892B09F042C0212F4F2D602F89819A8110
:1011B0000E949F0A9A83898320E030E08217930778
:1011C000A1F1F9800A8106FF1AC007FD2EC003FFB6
:1011D00007C011FF2AC08F2D902F0E94401D25C0EF
:1011E00000FF23C011FD21C010FF1FC08F2D902FC5
:1011F0000E944A1D8F2D902F0E944F1D16C0812FD7
:10120000817011FF0AC0811102C061E001C060E07D
:101210008F2D902F0E946C1C08C0882331F017FF7F
:1012200004C08F2D902F0E94BE1C0F900F90DF9155
:10123000CF911F910F91FF90EF90089550E090E1B2
:10124000699F400D511D1124FA0190E4899FE00D22
:10125000F11D1124EE0FFF1FE65CFE4F8591949166
:101260000895CF93DF93462F262F30E090E1899F9A
:10127000F0011124EF01C20FD31FCC0FDD1FC256A6
:10128000DC4FE25AFC4FDF01A20FB31FE0910201D5
:10129000F0910301682F8C91099599838883DF91E0
:1012A000CF9108950F931F93809100018150409139
:1012B0001F0450912004609121047091220488231E
:1012C00089F08A019B01082E04C036952795179551
:1012D00007950A94D2F700FF03C080931E0404C050
:1012E0008150EDCF10921E041F910F9108950F931E
:1012F0001F9340911F04509120046091210470912C
:1013000022048A019B0104C03695279517950795FD
:101310008A95D2F7D901C80181701F910F91089564
:10132000DF92EF92FF920F931F93CF93DF9380E4AE
:10133000EEE5F3E0DF011D928A95E9F77F01D0E049
:1013400000E010E0D02EC0911E041C16B4F48C2FC7
:101350000E947709882379F0E0910201F09103015E
:101360004D2D6D2F8C2F0995019629F0F701E00F77
:10137000F11FC08302C0C150E8CF0F5F1F4F003183
:10138000110501F7DF5F20E1E20EF11CD430C1F658
:10139000DF91CF911F910F91FF90EF90DF90089513
:1013A0000F931F9300911F0410912004209121049A
:1013B00030912204B901A801082E04C076956795E2
:1013C000579547950A94D2F740FF28C041E050E076
:1013D00060E070E0082E04C0440F551F661F771FA1
:1013E0000A94D2F74095509560957095402351230B
:1013F0006223732340931F045093200460932104BD
:101400007093220490911E04891302C00E94520915
:101410000E9490091F910F910C94E0041F910F916D
:101420000895CF9390910001891780F5C82F0E94ED
:10143000770981112BC081E090E0A0E0B0E00C2E94
:1014400004C0880F991FAA1FBB1F0A94D2F74091AE
:101450001F04509120046091210470912204842B78
:10146000952BA62BB72B80931F0490932004A09359
:101470002104B093220480911E048C1710F40E9462
:1014800052090E949009CF910C94E004CF910895E5
:1014900010921F0410922004109221041092220432
:1014A0000C94110A80911E048F5F0C94110A809194
:1014B0001E040C94D009CF93C82F862F8270CA3295
:1014C00048F1CA52C13289F0C232C9F4617088232E
:1014D00029F0611103C0CF910C94520A662369F17F
:1014E00081112BC0CF910C94570A6170882311F0A1
:1014F0006623C1F3662309F181111FC0ECCF882355
:1015000031F08C2F0E947709811117C012C060FD45
:101510000CC013C0882389F060FD0FC08C2F0E947F
:101520007709882331F0CC2321F08C2FCF910C94B4
:10153000D0098C2FCF910C94110ACF910895943437
:1015400029F4622F0E945B0A80E090E00895609188
:101550001E046093240480912504861730F0809146
:101560002604909127040C9463110895242F8091F0
:10157000240490912504981740F0462F682F8091FD
:101580002604909127040C948111089580912604DB
:1015900090912704892B49F4862F609325040E949B
:1015A000021190932704809326040895FC019081F2
:1015B00080910F01981306C08091690490916A048C
:1015C0000E94A70A80E090E008950F9320912604DE
:1015D00030912704009125044AEF52E08CE594E015
:1015E0000E94AB110F9108958FEF8093230408950B
:1015F0000F931F93CF9390912A04891718F080E0DE
:1016000090E020C0282F862F90E034E0239F800DAB
:10161000911D112424E0880F991F2A95E1F7840F6A
:10162000911D880F991F00912B0410912C04080F15
:10163000191FC8010E94872FC82FC80101960E9458
:10164000872F9C2FCF911F910F910895909129047E
:10165000891718F40E941E090895891B0E94F80A30
:101660000895FF920F931F93CF93DF93EC01F62E13
:1016700008811981C8010E94872FF81621F06F2D6B
:10168000C8010E948F2FCE01DF91CF911F910F9142
:10169000FF9008958FE294E00E94A20C80910001D7
:1016A0008093290480E090E0089580932A0420E844
:1016B000829FC00111240E94D90C90932C04809326
:1016C0002B040895809300019091320497FF03C08A
:1016D00028EF3AE007C090912904980F90930001F9
:1016E00026E23BE030930301209302010C94550B5A
:1016F000FF920F931F93CF93DF9300D0CDB7DEB748
:10170000F62E672F8C01000F111F80912B049091F2
:101710002C04800F911F9A838983CE0101960E9429
:10172000310B80912B0490912C040196080F191F06
:101730001A8309836F2DCE0101960E94310B0F9001
:101740000F90DF91CF911F910F91FF900895EF922D
:10175000FF920F931F93CF93DF93082F7B01C0E07D
:10176000C017D9F0D0E010E0412F6D2F8C2FF7017A
:1017700009954AE050E0BC018FEB95E00E944228B9
:1017800060E28FEB95E00E94C8271F5F103161F780
:10179000DF5FD43041F7CF5FE3CFDF91CF911F916F
:1017A0000F91FF90EF900895CF93DF93EB0149E203
:1017B00053E088E394E00E949B0E811187C047E0CC
:1017C00050E061E273E0CE010E946C2F892B09F09A
:1017D0007DC0279666E173E0CE010E94632F892BBE
:1017E000B9F58FEB95E00E94A5250A9789F46091E1
:1017F000320467FB662760F94AE050E08FEB95E022
:101800000E943B2860E28FEB95E00E94C82761C0F0
:1018100041E060E070E08FEB95E00E940729C62F61
:10182000862F0E942B0D80912A0480930001CC23E7
:1018300019F088EF9AE007C090912904890F8093EE
:10184000000186E29BE0909303018093020141C076
:101850006EE073E0CE010E94632F892B29F46EE1C4
:1018600079E08091290414C067E073E0CE010E9402
:10187000632F892B59F58FEB95E00E94A5250A97D8
:1018800019F0C0E0D0E01BC068EF7AE080912A0434
:101890000E94A70B1EC080912A0420E4829FC001F1
:1018A0001124C817D907A8F441E060E070E08FEB7D
:1018B00095E00E940729CE010E94780B21968FEBBC
:1018C00095E00E94A5250A9721F0E5CF80E090E001
:1018D00002C081E090E0DF91CF9108954AE050E0AE
:1018E000682F8FEB95E00E943B2860E28FEB95E03C
:1018F0000C94C827EF92FF920F931F93CF93DF931F
:1019000000D0CDB7DEB782E3E82E84E0F82E00E009
:1019100010E0F70161917F011A830983CE010196DE
:101920000E94310B0F5F1F4F0430110591F782E3C6
:1019300094E00F900F90DF91CF911F910F91FF9046
:10194000EF9008950F931F93CF93DF9302E314E07A
:10195000C0E0D0E0CE010E94872FF80181938F0173
:101960002196C430D105B1F7809133048F3F71F4D3
:1019700080913204982F9F779F3719F487FD10923A
:10198000320481E0809333040E947A0C80E090E07E
:10199000DF91CF911F910F9108958091300488239A
:1019A00029F08091340490913504089580E090E00E
:1019B00008950F931F93CF93DF9300D0CDB7DEB779
:1019C0009A83898380913004811116C000910401AB
:1019D0001091050189819A81800F911F90930501D3
:1019E0008093040142E0BE016F5F7F4F86E394E085
:1019F0000E94710EC80102C080E090E00F900F902D
:101A0000DF91CF911F910F9108950E947A0C81E090
:101A1000809331040895CF93C82F80910001C81797
:101A200058F48C2F0E94480A8091320480789C2FB1
:101A30009F77892B80933204CE3730F08091320427
:101A400080788E67809332040E94050D8091320465
:101A50008F77CF9108959091320480FB97F99093FE
:101A60003204892F8F778F3721F490789E67909377
:101A700032040C94050D81E08093300460E186E32C
:101A800094E00E94580E80913304813019F0109236
:101A90003104089520913404309135048091360446
:101AA000909137042F3F4FEF340739F4909335046A
:101AB000809334040E94050D03C02817390751F4A0
:101AC000809132048F77282F30E02E37310514F4BF
:101AD0000C94480A089580913004811102C00E943C
:101AE0003B0D80E090E00895CF93DF93EB014CEB4A
:101AF00053E088E394E00E949B0E811128C049E0E6
:101B000050E062EB73E0CE010E946C2F892BF9F458
:101B1000299665EA73E0CE010E94632F892BA9F113
:101B20006EE973E0CE010E94632F892B09F442C055
:101B300066E973E0CE010E94632F892B09F444C04B
:101B400062E973E0CE010E94632F892B19F080E0D7
:101B500090E040C00E94CD0CEC0160913604709181
:101B600037044AE050E08FEB95E00E94422860E99C
:101B700073E08FEB95E00E94A4274AE050E0BE019D
:101B80008FEB95E00E94422823C08FEB95E00E94E6
:101B9000A5250A9721F4809132048F7717C041E080
:101BA00060E070E08FEB95E00E940729862F0E948D
:101BB0000B0D0EC0809131040E94B70E60E28FEBD6
:101BC00095E00E94C82704C0809133040E946E0CE7
:101BD00081E090E0DF91CF9108950F931F93CF9311
:101BE000DF9300D0CDB7DEB78B0144E753E088E345
:101BF00094E00E949B0E81110EC064E673E0C80160
:101C00000E94632F892BF1F068E573E0C8010E9400
:101C1000632F892B19F080E090E043C0809104018C
:101C20009091050160E074E0681B790B4AE050E098
:101C30008FEB95E00E94422860E28FEB95E00E94D6
:101C4000C8272DC08FEB95E00E94A52500E010E08D
:101C50000A97F9F4C8010E94872F0E946E0C0F5F4B
:101C60001F4F011584E01807A9F719C041E060E093
:101C700070E08FEB95E00E9407291A830983CE015B
:101C800001960E94310B0F5F1F4F011584E018076A
:101C900031F08FEB95E00E94A5250A9739F781E096
:101CA00090E00F900F90DF91CF911F910F910895C9
:101CB000FC01208131812170332781E0861770F487
:101CC000408151815695479551834083220F331FA0
:101CD00041705527242B352B8F5FF0CF3183208324
:101CE0000895DC01FB01415000F1519168E070E082
:101CF00081E02D913C911197952F982311F4932F0A
:101D000002C0932F9095991F9927991F220F331F77
:101D1000992319F095E02927305811963C932E937A
:101D2000880F6150710929F7DECF089510923704AA
:101D3000109236040895CF93DF93CB01EA0160E15E
:101D400074E00E94632F892B39F4BE018FEB95E07C
:101D50000E94D32781E001C080E0DF91CF910895F8
:101D60004BE054E00E949B0E80E090E008958111CA
:101D700003C060E074E002C066E074E08FEB95E0C1
:101D80000C94A4278FEB95E00E94BE25892B59F077
:101D90008FEB95E00E94A5250A9729F08FEB95E03F
:101DA0000E94CE25F5CF0895EF92FF920F931F93D7
:101DB000CF938FEB95E00E94BE25892BD9F109E3E3
:101DC00014E0C0E0CF5F8FEB95E00E94CE25780154
:101DD000F80180838FEB95E00E94A5250A9741F0DA
:101DE0000F5F1F4FF7018081803211F0C03251F731
:101DF0008C2F90E0FC01E85CFB4F2081203219F031
:101E0000FC01E75CFB4F108289E394E00E940D0621
:101E100065E174E08FEB95E00E94D3270E94C20E2B
:101E20008FEB95E00E94A5250A9721F48FEB95E0B2
:101E30000E94CE2580E090E0CF911F910F91FF90FE
:101E4000EF900895909121068091060190FF0FC0B8
:101E500081111AC080915A04811106C081E08093DB
:101E60005A0480E090E00EC081E090E00BC0811148
:101E70001092060180915A04882331F010925A047E
:101E800082E090E00E94B80480E090E008956F92B4
:101E90007F928F92BF92CF92DF92EF92FF920F9339
:101EA0001F93CF93DF936C01B42E3801822EC62F7F
:101EB00000E010E07801D0E0C6010E2C02C096953B
:101EC00087950A94E2F780FF07C0482D93016B2D98
:101ED0006D0F8C2F0E94A313DF5F8FEFE81AF80AB3
:101EE000D43051F70C5F1F4FCF5F0031110511F750
:101EF000DF91CF911F910F91FF90EF90DF90CF90E6
:101F0000BF908F907F906F900C94B013CF92DF9220
:101F1000EF920F931F936801E22E8430910580F0B9
:101F20008832910568F42E2D8601E82FE450F0E008
:101F3000EE0FFF1FE75EFB4F859194910E94470FC4
:101F40001F910F91EF90DF90CF9008950F931F9303
:101F50000091070110910801209109010E94860F4C
:101F60001F910F910895AF92BF92CF92DF92EF929F
:101F7000FF920F931F93CF93DF93E12CF12CC0E0DE
:101F8000D0E030E070E010E050E0A0E0B0E06B01A5
:101F9000CC0EDD1EF701EA0FFB1F5C0102C0B694F8
:101FA000A794EA95E2F7F5012C153D0549F45A018D
:101FB000AA0EBB1E0A151B0519F48E2F81700CC0CA
:101FC0001196A430B10531F72196E4E0EE0EF11C34
:101FD000C430D105D1F680E0DF91CF911F910F91F0
:101FE000FF90EF90DF90CF90BF90AF9008950F9348
:101FF000FC018430910568F0889758F4E450F0E0D3
:10200000EE0FFF1FE75EFB4F859194910E94B30F87
:1020100001C080E00F9108950F931F93CF93DF933A
:10202000FC01162FD42F8681978120917002309168
:10203000710240910A0150910B01D83058F462812D
:102040007381261B370BC1E04217530708F0C0E02D
:1020500042E00CC08085918564817581261B370B19
:10206000C1E04217530708F0C0E04AE00D2F212FCE
:1020700060E00E94F70F882311F0CC2339F020E0B4
:1020800030E040E06D2F812F0E94A313DF91CF91AC
:102090001F910F9108950F931F9300E010E020E02F
:1020A0000E94860F1F910F910895CF93DF93EC014B
:1020B0008E819F810097A9F020917002309171026A
:1020C0004A815B81241B350B40910A0150910B0121
:1020D0004217530730F442E060E00E944B101E822A
:1020E0001F82888599850097A9F020917002309110
:1020F00071024C815D81241B350B40910A01509186
:102100000B014217530730F44AE060E00E944B1085
:1021100018861986DF91CF910895FC0181E591E041
:1021200091838083168217821086118608950F93FB
:102130001F93CF93DF93FC01908180910F0198133F
:1021400036C007FD34C0FB01408151814430510548
:1021500070F14832510558F501FF29C0E09169043A
:10216000F0916A04A0917002B0917102283040F49D
:102170008681978157834683B383A28312E007C089
:102180008085918551874087B583A4831AE0EB0150
:10219000288139818217930721F0412F60E00E9446
:1021A0004B10412F60E0888199810E94A60F80E04A
:1021B00090E0DF91CF911F910F9108958FEF809361
:1021C0005B0408954AE050E0682F8FEB95E00E9491
:1021D0003B2860E28FEB95E00C94C8278091660461
:1021E00081110FC060E070E00E94271380916904A4
:1021F00090916A04DC01ED91FC910280F381E02D65
:1022000009940895CF93C82F80915D0490915E0446
:10221000892B41F480E390E00E94D90C90935E04F6
:1022200080935D0420E2C29FC0011124CF910C94E1
:10223000D90CCF93DF93EB019B0136952795820F45
:10224000931F0E94872FC0FF82958F70DF91CF91DF
:102250000895EF92FF920F931F93CF93DF9300D0D7
:102260001F92CDB7DEB700915D0410915E0493E03C
:10227000899F000D111D1124C8010E94872FF82E7F
:102280008983C80101960E94872FE82E8A83C8019E
:1022900002960E94872F80958B83E094EA82F094C7
:1022A000F98269817A818B810F900F900F90DF9175
:1022B000CF911F910F91FF90EF9008950E941911F7
:1022C0000E94291108950F931F93CF93DF938C01E0
:1022D00020E2629F000D111D1124C0E0D0E0BE017C
:1022E000C8010E945E11AB01682F8C2F0E94201341
:1022F0002196C034D10599F7DF91CF911F910F91AD
:1023000008950F931F93CF93342F8C0140E2649F65
:10231000000D111D1124422F632F84E792E00E94CB
:10232000B706C82F682F880F770BC8010E945E116F
:10233000AB01682F8C2F0E942013CF911F910F911A
:1023400008958FEB95E00E94A52521E00A9709F0FA
:1023500020E0822F0895AF92BF92CF92DF92EF924A
:10236000FF920F931F93CF93DF9300D0CDB7DEB7CB
:102370007B015A01690188E394E00E949B0E811160
:1023800059C0B501C7010E94632F892B09F052C0C3
:1023900080E2089F800111240E94A111E12CF12C00
:1023A000882309F442C0E016F10609F448C0C701C9
:1023B0008C0D9D1D0E94872FA82EB12C82958F70A9
:1023C0000E94E210B5016F704AE050E08FEB95E09B
:1023D0000E94902860E28FEB95E00E94C8278FEF63
:1023E000E81AF80AE0CFE016F10639F141E060E0C2
:1023F00070E08FEB95E00E940729B62E41E060E087
:1024000070E08FEB95E00E940729C7018C0D9D1DA0
:102410009A83898380E1B89E600D1124CE010196D4
:102420000E94310B8FEFE81AF80A0E94A111811166
:1024300004C0D9CF80E090E004C00E94EE1081E09B
:1024400090E00F900F90DF91CF911F910F91FF902F
:10245000EF90DF90CF90BF90AF9008950F931F93B0
:10246000CF93DF93EB0198814FEF50E06FEF70E077
:10247000913E58F02FEF30E0F901E91BF109CF014F
:102480000E943614E62F382F17C08EE190E00E948C
:102490003614E62F272F4881489FC00111240FEFE3
:1024A00010E0B8010E94E22E362F429FC001112495
:1024B000B8010E94E22E762F9881913E10F0915043
:1024C00003C0903418F09051988305C0903210F0FA
:1024D0009052FACF18826E2F832FDF91CF911F91E8
:1024E0000F910895AF92BF92CF92DF92EF92FF9239
:1024F0000F931F93CF93DF931F92CDB7DEB7209139
:10250000630430916404232B09F456C020917002B7
:1025100030917102DC0114964D915C911597241B4A
:10252000350B40910C0150910D014217530708F0F3
:1025300043C08C016C01B6E0CB0ED11CF12C5601CE
:10254000E12CF501808189838823A1F080916304C7
:1025500090916404DC01ED91FC910190F081E02DFB
:10256000BE016F5F7F4F09959B01482F6E2D8F2D08
:102570000E94A3138981F50181935F0181110AC033
:102580002091600430916104409162046E2D8F2D82
:102590000E94A313E394F0E1EF12D3CFF39480E110
:1025A000C80ED11CA4E0FA12CACF8091700290919B
:1025B0007102F801958384830F90DF91CF911F9171
:1025C0000F91FF90EF90DF90CF90BF90AF90089564
:1025D000FC018DE591E09183808373836283158292
:1025E0001482369680E4DF011D928A95E9F70895FA
:1025F0000F934430B8F42031A8F4FC01908180910D
:102600000F0198130FC001FF0DC0E0916904F09114
:102610006A0480E1489FE00DF11D1124E20FF11DD5
:102620008FEF868380E090E00F91089529E631E0F6
:10263000FC013183208308958FEF80935F04089518
:102640009A01462F682F84E792E00C94E206CF921D
:10265000DF92EF92CF936B01E82EC0E06E2DA601C2
:102660008C2F0E942013CF5FC034C1F7CF91EF9021
:10267000DF90CF90089590916B048917D8F48093E0
:102680000F010E94D21B90936A0480936904809189
:10269000660481110FC060E070E00E9427138091F2
:1026A000690490916A04DC01ED91FC910280F38150
:1026B000E02D0994089580910F018F5F80930F01A1
:1026C00090916B04891708F080E00C943B13809183
:1026D0000F01811102C080916B04815080930F0122
:1026E00080910F010C943B13EF92FF921F93CF93B5
:1026F000DF9300D000D0CDB7DEB77C0110E0809131
:102700006B04181788F4BE016F5F7F4F812F0E9402
:10271000150589819A81E816F90621F4812F0E9416
:102720003B1302C01F5FEBCF0F900F900F900F90E5
:10273000DF91CF911F91FF90EF900895762F642F36
:102740000E94271308950F931F938901242F462F6A
:10275000682F84E792E00E9430071F910F9108953F
:1027600080916604811104C084E792E00C944207D2
:10277000089560E070E080E00E9427130E94220527
:1027800080910F018F3F19F480E00E943B1380E09D
:1027900090E008950F93FB0181818334C9F401FF18
:1027A0000CC000FD0AC0FB012081318180E093E470
:1027B0008217930729F40E945B1381E090E00AC01E
:1027C00081E093E428173907C1F70E946713F5CF1A
:1027D00080E090E00F91089580916604811129C0F6
:1027E0002091700230917102809167049091680489
:1027F000281B390B80910E0190E082179307C8F4D3
:102800000E94B01320910E0180916704909168049A
:10281000820F911D909368048093670480916904EE
:1028200090916A04DC01ED91FC910480F581E02D2A
:10283000099580E090E008950E94110580936B0453
:10284000089560E070E080E00E9427130895862FCD
:10285000642F20E030E040E00E94A31308958FE64B
:1028600091E090936D0480936C0408950F931F93EF
:10287000CF93DF936115710521F4642F742F842F9A
:1028800061C026E0289FD001299FB00D11248B2F15
:102890009927AE7FBB27EFEFF0E0EF01C61BD70B08
:1028A000C49F9001C59F300DD49F300D11246A9FA5
:1028B000E0016B9FD00D7A9FD00D1124CD2FDD2725
:1028C0008F010C1B1D0B049FE001059FD00D149F71
:1028D000D00D11248F010A1B1B0B069FD001079FEF
:1028E000B00D169FB00D11246B2F7727E61BF70B49
:1028F000E49FD001E59FB00DF49FB00D112482300C
:102900009105A1F038F4009769F00197B1F49D2F7B
:10291000742F0AC08330910569F0049771F49B2FDE
:10292000732F0EC0942F7B2F432F0AC0932F742F29
:102930004B2F06C0932F7D2F03C0942F732F4D2F45
:10294000642F892FDF91CF911F910F9108952091CE
:1029500070023091710290E1499F200D311D1124C8
:10296000A4E036952795AA95E1F7922F27FD90953B
:10297000990F999FF0011124EF2FFF27AF01440F0A
:10298000551F4E0F5F1F9E9F90019F9F300D11247A
:10299000232F3327220F331F421B530B5695479586
:1029A000405B50E070E090E00E9436140895EF9292
:1029B000FF921F93CF93DF93809115018F3F31F4E6
:1029C0008EE5E82E83E0F82E10E013C090911601FA
:1029D0009F3FB1F3909372048093710423C02196BA
:1029E000C031D10541F41F5F80E1E80EF11C1430C5
:1029F000C9F0C0E0D0E0E0910201F09103014C2F5A
:102A0000612FD701AC0FBD1F8C9109952091130147
:102A1000309114012817390711F710937204C093ED
:102A2000710403C081E080937304DF91CF911F9103
:102A3000FF90EF9008950E94D71480E090E00895F1
:102A400080917304811132C0809170029091710263
:102A500020916F0430917004821B930B2091100120
:102A6000309111012817390798F481E0809373049D
:102A70008091690490916A04DC01ED91FC910680DB
:102A8000F781E02D409171046091720409950EC0A8
:102A900040E06FEF809112010E94A7149B01482F24
:102AA00060917104809172040E94A31380E090E011
:102AB0000895FC01248130917002321B333360F0A1
:102AC0002E5C24830280F381E02D40E061818081CF
:102AD0000E94A7140E9427130895E4E7F4E08AEA0D
:102AE00080838FEF818308950F931F93CF93DF939C
:102AF000EC01EA81FB814E815F819181292F30E0D9
:102B00008091700290917102841B950B28173907F0
:102B1000A0F5240F351F3F832E838C812D8190815A
:102B2000082F299F0019112440E050E060E00E9426
:102B30002013003434F440E050E060E0802F0E9425
:102B400020139C811D81892F810F8C8381508F33AD
:102B500010F4100F04C011951D839C8310E440E015
:102B600050E06FEF8C810E942013103434F44FEF4B
:102B700050E060E0812F0E942013DF91CF911F91E0
:102B80000F910895E6E7F4E085E0808386E981838C
:102B90000895CF93DF93EC01EA81FB8120819F812F
:102BA00080917002891B2817E0F4920F9F83418166
:102BB00050E0688570E08C819D810E9436149B01F5
:102BC000482F5E818C819D81850F911D8F3F9105DE
:102BD00010F08F5F91099D838C83842FB9010E942F
:102BE0002713DF91CF9108951F93CF93DF93EC01CB
:102BF000EA81FB8120819F8180917002891B2817C7
:102C000070F5920F9F8310E08C819D81212F259577
:102C1000259530E12302800D911D11248F3F9105F0
:102C200010F08F5F9109EA81FB81418150E0688556
:102C300070E00E943614AB01682F812F0E94201390
:102C40001F5F103409F72E818C819D81820F911DA9
:102C50008F3F910510F08F5F91099D838C83DF91E9
:102C6000CF911F910895FC0161830895FC01618358
:102C70000895EAE7F4E098E2908382E38183E8E74D
:102C8000F4E0908381830895DC011296ED91FC912C
:102C900013974281618180810C949E13562F642F7B
:102CA000DC011296ED91FC911397228131814081D4
:102CB000852F0E94A31308950C947413CF93C42FEF
:102CC000262F20684FEF6FEF0E946F08C11105C0DB
:102CD0000E94FD1CCF910C94AA1DCF9108950F93D3
:102CE0001F93CF93DF93C62F042F122FFC01D49193
:102CF00041FF06C0422F62E08D2F9C2F0E945E167E
:102D000000FF06C0412F61E08D2F9C2F0E945E16B0
:102D1000DF91CF911F910F910895EF92FF920F9342
:102D20001F93CF93DF93CB01009709F461C0F12C7F
:102D3000E12C8C010F5F1F4FFC01449150E0FA0120
:102D40003197EB30F10508F053C0EA5AFF4F0C946D
:102D5000182FF12C45C00E94FD1C0E94AA1D40C0E6
:102D60000296F801E4908C013BC0EC012296F80138
:102D7000649170E080E090E00E943B2E2DC0F8014D
:102D800064918C010D5F1F4F2F2D42E00FC0F801A1
:102D900064918C010D5F1F4F2F2D41E007C0F8019A
:102DA00064918C010D5F1F4F20E043E002960E946A
:102DB0006F1616C0EC0122962F2D42E009C0EC01DF
:102DC00022962F2D41E004C0EC01229620E043E042
:102DD00060E0C8010E946F168E0102C0FF24F394C8
:102DE0006E2D70E080E090E00E943B2EC801A1CFE4
:102DF000DF91CF911F910F91FF90EF90089580E0A8
:102E000090E06134B8F46A3360F5603229F148F437
:102E10006A30F1F018F46830C8F408956B31D1F0DD
:102E200008956133D8F4E62FF0E0EE0FFF1FE15E66
:102E3000FB4F2DC0613628F46B35D0F498E083EC5D
:102E40000EC06B37E0F06F37E0F0089582E207C004
:102E500088E2089589E208958CE208958DEE860F48
:102E60000895E62FF0E0EE0FFF1FE35FFB4F0FC06A
:102E7000E62FF0E0EE0FFF1FE752FC4F08C083EA99
:102E8000EECFE62FF0E0EE0FFF1FEB55FC4F8591E4
:102E900094910895EF92FF920F931F93CF93DF9336
:102EA0007C018B01F80164916623B9F0C7010E948F
:102EB000FF16EC0180E090E0C817D90719F40F5F06
:102EC0001F4FF0CF40E062E0CE010E945E1640E06E
:102ED00061E0CE010E945E16F2CF80E090E0DF91CB
:102EE000CF911F910F91FF90EF9008950F93FB01E9
:102EF00081818036C9F480917F048830C0F490814C
:102F0000E82FF0E0BF01660F771FE60FF71FE058CC
:102F1000FB4F908390E1499F200D11242183028370
:102F20008F5F80937F0403C080E090E002C081E067
:102F300090E00F91089510927F0480E090E0089552
:102F4000CF93C0E080917F04C81748F58C2F90E0A4
:102F5000FC01EE0FFF1FDF01A80FB91FA058BB4FE8
:102F600011962C912F3F19F420937E0406C0322F26
:102F700032953F7030937E042F7020937D048E0F26
:102F80009F1FFC01E058FB4F628180810E945F041B
:102F9000BC018CE794E00E948D16CF5FD3CF80E018
:102FA00090E0CF910895BF92CF92DF92EF92FF927F
:102FB0000F931F93CF93DF9310E000914001101700
:102FC00008F059C0C12FD0E06E0123E0CC0CDD1C0D
:102FD0002A95E1F7E12CF12C82E0C80ED11CBE2C21
:102FE000F601EE0DFF1DEE5CFE4F6491662379F055
:102FF00084E792E00E944608882361F0EFEFEE1A22
:10300000FE0AF5E0EF16F10451F795E0B92EFF2422
:10301000F39401C0F12C84E792E00E944D08B812AD
:1030200028C0FF2031F180917002909171022091AF
:10303000990430919A04821B930B209117013091CF
:10304000180128173907A8F4FE0183E0EE0FFF1FCF
:103050008A95E1F7EE5CFE4F25913491812FF901BD
:103060000995809170029091710290939A048093D7
:1030700099041F5FA4CF80E090E0DF91CF911F9172
:103080000F91FF90EF90DF90CF90BF900895209127
:1030900070023091710240919C0450919D04B901DD
:1030A000641B750BAB016091190170911A016417D3
:1030B000750700F530939D0420939C0480FF04C0A5
:1030C00020E040911B0112C081FF05C040911B010F
:1030D000419520E00BC082FF04C020911B01219587
:1030E00004C083FF07C020911B0140E060E080E046
:1030F0000C94571D08950E94AA1D0E94A61D1092AF
:10310000A20480E090E008958091A204811103C0A0
:103110001092A50455C02091700230917102409127
:10312000A0045091A104B901641B750BAB0160911F
:103130001F01709120016417750708F041C030939A
:10314000A1042093A00440919E0450919F04B901D2
:10315000641B750BAB0160911C0170911D0164171C
:103160007507A0F46091A50490911E01E62FF0E090
:103170004FEF50E0491B5109E417F5071CF4960F77
:103180009093A50430939F0420939E0480FF04C075
:1031900060912101619506C081FF03C0609121010A
:1031A00001C060E082FF04C080912101819506C0CA
:1031B00083FF03C08091210101C080E00E945D1A5D
:1031C00080E090E008950F93CF93FB0181818035DB
:1031D00009F062C08081282F2072902F9270382FC2
:1031E000307486FF16C0211114C0C82FCF7B017028
:1031F000992341F0011102C00E94B7198C2F0E943F
:103200008F1978C0002309F475C08C2F0E94911982
:1032100071C021111DC00170992309F440C0011132
:1032200065C020917002309171023093A104209307
:10323000A00430939F0420939E0440911901509163
:103240001A01241B350B30939D0420939C044EC01F
:10325000992309F44FC000FD4DC080FD02C090E0ED
:1032600001C092E021E0311101C020E0922B81FDEC
:1032700002C020E001C024E0922B82FD02C020E0C9
:1032800001C028E0922B83FD02C080E001C080E1F4
:10329000892B0E94BD192EC080E090E034C000232D
:1032A00049F180959091A20489238093A2048081A2
:1032B000982F937031F020E084FD0DC040E061E074
:1032C00011C0982F9C7049F084FD09C020E040E0B7
:1032D00060E081E008C041E004C020E001C021E0DE
:1032E00040E060E080E00E94621D04C084FF05C0F1
:1032F0000E94471881E090E006C09091A204892BBB
:103300008093A204F7CFCF910F9108950E948B195B
:1033100080E090E008950E94531D0C94AE1D0C9423
:103320009C1D0E94A11D1092A604089556954795D4
:10333000640F751F3695279540E0820F931F0C94FC
:10334000BA1D1092A8041092A7041092AA04109219
:10335000A9048FEF9FE79093AE048093AD04909300
:10336000AC048093AB0481E08093A604089580911F
:10337000A60481110C94A11908950F931F93CF9364
:10338000C82F8091A604811102C00E94A119C0FF1C
:1033900006C01092A604CF911F910F910895E0915D
:1033A00024010E2F10E08091AD049091AE04B8017D
:1033B0000E94CE2E9B017093AE046093AD04809169
:1033C000AB049091AC04B8010E94CE2EAB01709377
:1033D000AC046093AB047C2F74708091A70490912F
:1033E000A804E091A904F091AA046C2F66706630DD
:1033F00071F4820F931F9093A8048093A704BA01DD
:103400006E0F7F1F7093AA046093A90434C07723C2
:1034100061F0D8011197A49FB001A59F700DB49FD2
:10342000700D1124E60FF71F04C0C1FD06C0E40FA4
:10343000F51FF093AA04E093A904C4FF0CC0F8019F
:103440003197E29FB001E39F700DF29F700D112440
:10345000860F971F04C0C3FD06C0820F931F909371
:10346000A8048093A7046091A9047091AA04809194
:10347000A7049091A804CF911F910F910C949619D5
:1034800087FD0AC0889FC0011124880F892F881FDB
:10349000990B91958F5F089520E031E0281B310949
:1034A000229FC001239F900D900D1124880F892F1A
:1034B000881F990B919580950895EF92FF920F9335
:1034C0001F93CF93DF93182F062F80912301E82EAF
:1034D000F12C112309F44CC0662381F123E6829F6D
:1034E000C00111246CE870E00E94E22E61157105A4
:1034F00009F07B01212F012E000C330B43E614024F
:10350000C00111246CE870E00E94E22E6115710583
:1035100009F09B01122F202F002E000C330B43E6E5
:103520000402C00111246CE870E00E94E22E6115D3
:10353000710509F09B01022F1123D1F08091A504A0
:103540000E94401A9091A404282F1203E001112434
:10355000C90FD11D97FDDA95EC16FD0664F088279A
:1035600099278E199F09C817D90734F4EC0104C0B4
:10357000C0E0D0E001C0E7010023D9F08091A504AC
:103580000E94401A2091A304382F0303C001112484
:10359000820F911D27FD9A95E816F90664F02227FF
:1035A00033272E193F097C018217930724F47901F0
:1035B00002C0E12CF12C1092A6042091220130E0EF
:1035C000C701B9010E94E22EE62FCE01B9010E9487
:1035D000E22E862F20E040E06E2F0E94571D2091A2
:1035E000220130E0CE01B9010E94E22E8093A404B2
:1035F000C701B9010E94E22E8093A304DF91CF910D
:103600001F910F91FF90EF90089580E090E0089552
:103610009F92AF92BF92CF92DF92EF92FF920F9361
:103620001F93CF93DF9380910F010E943B138EE590
:10363000E82E83E0F82EC0E000E010E0D02FE0910B
:103640000201F0910301402F6C2FD701A00FB11F91
:103650008C910995982EB92EA92EE0910201F09136
:103660000301402F6C2F8091B1040995292D3B2D2A
:103670004091B10454E44217530721F4C09326014A
:10368000009325012817390739F4C12CD12C2C15AA
:103690003D0511F0AA2071F08091690490916A04AF
:1036A000DC01ED91FC910680F781E02D4D2F6C2F10
:1036B00009950AC0209128013091290140912A01E1
:1036C0006D2F8C2F0E94A3130F5F1F4F0031110528
:1036D00009F0B4CFCF5FB0E1EB0EF11CC43009F0BC
:1036E000ABCF80912601853090F480912501813106
:1036F00070F440E06FEF809127010E94A7149B01B6
:10370000482F60912501809126010E94A313DF912B
:10371000CF911F910F91FF90EF90DF90CF90BF90CE
:10372000AF909F900895CF93DF93EC018091B10407
:103730000E9477099091B004811109C0992379F012
:1037400080910F010E943B131092B00408C09111A8
:1037500003C081E08093B004CE010E94081B80E08A
:1037600090E0DF91CF9108958FED94E00E948A2040
:1037700061E0811160E08091E00081608093E00071
:103780006093E9048FED94E00E948D2068EE73E071
:1037900080E090E00E943B2E8091E0008E7F80933D
:1037A000E00008951F93CF93DF9300D000D0CDB7F2
:1037B000DEB790912B019817C9F0182F80932B0139
:1037C000BE016F5F7F4F0E941505EB81FC81309732
:1037D00019F489819A8106C069817A81412F8CE030
:1037E00092E009959093B4048093B3048091B3045C
:1037F0009091B4040F900F900F900F90DF91CF91A4
:103800001F910895CF93DF9300D000D000D0CDB7A3
:10381000DEB7DC0113967C936E93129715965C933A
:103820004E93149716963C91169739837B836A833F
:103830005D834C832E83ED91FC910190F081E02D0E
:1038400046E050E0BE016F5F7F4F099526960FB6A8
:10385000F894DEBF0FBECDBFDF91CF9108958DE309
:1038600095E00E94F1238FED94E00C942421CF93F6
:10387000C82F8FED94E00E948A206C2F811105C023
:103880008FED94E0CF910C94BE208DE395E0CF9125
:103890000C949123CF93C82F83FF04C081EE90E056
:1038A0000E94371CC0FF04C080EE90E00E94371CCD
:1038B000C1FF04C082EE90E00E94371CC2FF04C02A
:1038C00086EE90E00E94371CC4FF04C083EE90E0B7
:1038D0000E94371CCF910895CF93DF93D82FC92F23
:1038E000907C662399F08091B504811102C01092FA
:1038F000B7048091B7048C2B8093B704911104C056
:1039000080E28D0F883020F0D093B504911108C06B
:1039100080E28D0F883020F48C2F0E944A1C05C055
:103920008091B6048C2B8093B6048D2F9C2FDF9151
:10393000CF910C94371CCF93C82F8FED94E00E9449
:103940008A206C2F811105C08FED94E0CF910C94EB
:10395000E6208DE395E0CF910C94B8238FED94E0B1
:103960000E941D211092B5041092B6048DE395E0DB
:103970000E94E1238FE195E00C94C822CF93DF935E
:10398000D82FC92F8091B70489278093B704892F36
:10399000807C21F480E28D0F883058F08091B5044E
:1039A0008D1302C01092B5048091B6048C278093C9
:1039B000B604C3FF04C081EE90E00E949B1CC0FFD0
:1039C00004C080EE90E00E949B1CC1FF04C082EE08
:1039D00090E00E949B1CC2FF04C086EE90E00E9413
:1039E0009B1CC4FF04C083EE90E00E949B1C8D2FA3
:1039F0009C2FDF91CF910C949B1C9091B6048091E9
:103A0000B70489230E944A1C8FED94E00E948A200B
:103A10006091B504811116C0662381F08FED94E0AA
:103A20000E94E6208FED94E00E9490206091B50402
:103A30008FED94E00E94BE201092B5048FED94E0CB
:103A40000C949020662381F08DE395E00E94B823CA
:103A50008DE395E00E9431236091B5048DE395E0FC
:103A60000E9491231092B5048DE395E00E943123CA
:103A70008FE195E00C94DB228FE195E00C9401231B
:103A8000BC0173708FE195E00C94B32282EA95E05B
:103A90000C94B524682F82EA95E00C94B72482EA4E
:103AA00095E00C94B3248AE895E00C944F240F938E
:103AB000022F242F462F682F8AE895E00E94F723D3
:103AC0000F910895FF920F931F93CF93DF9300D030
:103AD00000D01F92CDB7DEB7F62E142F722F95E0CF
:103AE000EAE8F5E0DE01119601900D929A95E1F772
:103AF0009A813B815C810D81882311F060E001C0D7
:103B0000692FFF2011F040E001C0432F112311F075
:103B100020E001C0252F711100E08AE895E00E94A5
:103B2000F7230F900F900F900F900F90DF91CF9190
:103B30001F910F91FF900895682F8AE895E00C94EB
:103B40000524682F8AE895E00C940A248AE895E019
:103B50000C94FF238AE895E00C941D24EBEAF5E031
:103B6000108A468557856485758520E085EB95E04C
:103B70000C94021C242FAB01BC0185EB95E00C9446
:103B8000021C0895FC01E859FF4F10823697262F3A
:103B900030E0318320833297686570E07183608301
:103BA00080912C019FEF980F90932C0181110C9420
:103BB000631E08950F931F93CF93DF9300D000D01F
:103BC0001F92CDB7DEB78C01FC01E05AFF4F21E018
:103BD00045E0BE016F5F7F4F80810E947B1E89811F
:103BE000813081F4F801EC59FF4F8A81808331964E
:103BF0008B81808331968C81808331968D81808307
:103C000081E001C080E00F900F900F900F900F9017
:103C1000DF91CF911F910F9108958C599F4FFC0117
:103C2000608171818281938108950F93CF93DF9397
:103C3000CDB7DEB769970FB6F894DEBF0FBECDBF24
:103C400020E8260F2983DE01129628E1629FB00149
:103C5000112420E030E0F901E60FF71FE80FF91F0B
:103C6000E081F0E0ED55FB4FE491ED932F5F3F4F86
:103C70002831310581F7FC01E05AFF4F00E021E0D7
:103C800049E1BE016F5F7F4F80810E94C31E69962C
:103C90000FB6F894DEBF0FBECDBFDF91CF910F916D
:103CA0000895CF93DF93EC01C859DF4F688121E07D
:103CB000260F28830E94151E8881843009F41882FB
:103CC000DF91CF9108951092DE0481E08093DC04AF
:103CD0001092DB04589A599AE9EBF0E080818E7FCC
:103CE000808380818D7F808388E48093B80085E421
:103CF0008093BC000895413208F043C09091DE04E7
:103D00009111FCCF91E09093DE042093DC042FEF1F
:103D10002093B8041092BA04240F2093B90490930E
:103D2000DD049091DD04880F892B8093DD04809160
:103D3000DB04813061F41092DB048091DD04809318
:103D4000BB008091BC0083FDF8CF85EC01C085EEFF
:103D50008093BC008091DE048130E1F38091BA044D
:103D6000841710F44091BA04ABEBB4E0962FFB013A
:103D70008E2F891B841718F48D918193F9CF842F8E
:103D8000089580E008950F93413208F04AC0909161
:103D9000DE049111FCCF32E03093DE040093DC04AA
:103DA0003FEF3093B8041092BA044093B904562FF1
:103DB000ABEBB4E0FB013E2F351B341718F4319107
:103DC0003D93F9CF1092DD043091DD04880F832BF1
:103DD0008093DD048091DB04813061F41092DB0478
:103DE0008091DD048093BB008091BC0083FDF8CFFF
:103DF00085EC01C085EE8093BC00222321F08091E8
:103E0000DE048230D1F38091B804803331F08F3FEB
:103E100049F0803221F492E005C093E003C094E0C1
:103E200001C091E0892F0F91089585ED8093BC002A
:103E30008091BC0084FDFCCF1092DE04089585ECD7
:103E40008093BC001092DE0408951F920F920FB66B
:103E50000F9211242F933F934F935F936F937F9310
:103E60008F939F93AF93BF93EF93FF938091B9008C
:103E7000887F883239F170F4803109F130F4882379
:103E800009F466C08830D9F067C08831D9F0803233
:103E900079F162C08034D9F150F4803349F188332C
:103EA00009F05AC08093B8040E941F1F55C0803586
:103EB00011F18835A1F1883409F04EC04BC08091D2
:103EC000DD0410C09091BA048091B904981798F558
:103ED000E091BA0481E08E0F8093BA04F0E0E554DB
:103EE000FB4F80818093BB0085EC8093BC0034C085
:103EF0008093B8042FC0E091BA0481E08E0F8093C4
:103F0000BA048091BB00F0E0E554FB4F80839091B0
:103F1000BA048091B904981738F385E8E6CFE091A8
:103F2000BA0481E08E0F8093BA048091BB00F0E068
:103F3000E554FB4F80838091DC0481110BC081E04C
:103F40008093DB0484EA8093BC001092DE0404C0FA
:103F50001092B8040E94151FFF91EF91BF91AF918D
:103F60009F918F917F916F915F914F913F912F9191
:103F70000F900FBE0F901F901895FC0182818F5BF0
:103F8000FB01808381E00895CF93DF93CDB7DEB747
:103F900069970FB6F894DEBF0FBECDBFFC01DB0101
:103FA0009C919F5F9C93BE016F5F7F4F89E1DB0116
:103FB0001D928A95E9F729E0298384E08A8391E0BC
:103FC0009D8383E08E839F8398872A8721E22B87B6
:103FD0009C879D879F8722E2288B2FE3298B27E0F0
:103FE0002B8B25E02C8B8E8B20E430E0388F2F8BB1
:103FF000998F82818B83838180688D8B49E150E02A
:1040000080E00E94472B69960FB6F894DEBF0FBE82
:10401000CDBFDF91CF910895FC01DB01828190E05B
:1040200014962D913C91159782179307E1F51196FF
:104030008C9111979C91913A61F4813091F1833088
:1040400011F4848D03C0823071F5858D8093F10069
:1040500028C0913241F58B3021F412968C91848FD7
:1040600020C08A3011F4158E1CC08930E1F4CF01D4
:1040700016962D913C91179713964C91423039F436
:104080002130310581F461E070E04E9608C0413086
:1040900051F42830310539F468E070E00B960E9445
:1040A0006E2B81E0089580E00895FC01DB018C9186
:1040B0008138B9F413968C911397823291F48281EE
:1040C00090E014962D913C9115972817390749F4E3
:1040D0008285848F4FE350E063EA75E080E80C94BA
:1040E000472B80E090E00895FC0181E08483858384
:1040F0009F01255E3F4F378326831186108627EB6D
:1041000031E0318320838287848F858F168E81EC06
:10411000838F0895FC01848D0895FC01648F0895B8
:10412000EF92FF920F931F93CF93DF938C01EC01DB
:104130002B967C0183E1E80EF11C48E050E0BE01C3
:10414000C7010E947A2F892B81F0F801838148E012
:1041500050E0BE0180640E94982A28E0FE01D70149
:1041600001900D922A95E1F702C08FEF9FEFDF914A
:10417000CF911F910F91FF90EF90089520E2260FAD
:10418000283058F441E050E001C0440F2A95EAF786
:10419000FC012385422B438716C0FC013D9620E09D
:1041A00030E04191641779F0411105C0FC01E20F44
:1041B000F31F658708C02F5F3F4F2630310589F711
:1041C00080E090E0089581E090E0089520E2260FDD
:1041D000283068F4622F21E030E001C0220F6A9598
:1041E000EAF72095FC0133852323238723C0FC01B4
:1041F000AC014A5F5F4FDC011D962C911D97621345
:1042000003C01D961C921D9711964A175B07A1F7D4
:1042100020E03585332351F0DC01A20FB11D1D963E
:104220006C911D971D963C9365872F5F3196E4171F
:10423000F50779F781E090E008950B9628E0FC01FE
:1042400011922A95E9F70895CF93DF93EC010E942C
:104250007B27BE010E943427CE010E941D21CE0182
:10426000DF91CF910C9490208FED94E00C9474200A
:10427000FB018BE6808382E6818389E682838FE679
:10428000838380E3848381E3858386E00895CF93ED
:10429000DF93CDB7DEB769970FB6F894DEBF0FBED8
:1042A000CDBFFC01DB018C918F5F8C93BE016F5FF2
:1042B0007F4F89E1DB011D928A95E9F729E0298387
:1042C00084E08A8391E09D8383E08E832A8721E2C4
:1042D0002B879C879D879F8722E2288B27E02B8B4B
:1042E00025E02C8B8E8B20E430E0388F2F8B998F3C
:1042F00082818B8395858685998B8A8B8381806863
:104300008D8B49E150E080E00E94472B69960FB603
:10431000F894DEBF0FBECDBFDF91CF910895CF934C
:10432000DF93FC01DB01828190E014962D913C919A
:10433000159782179307A9F511969C9111978C9167
:10434000813A31F481E0913069F1933051F52AC01E
:10435000813239F59B3021F412968C91878705C004
:104360009A3029F412968C91808B81E01BC0993091
:10437000C1F4EF0116968D919C91179782309105AB
:1043800039F462E070E0CF0141960E946E2B09C0C3
:10439000019739F461E070E0CF0142960E946E2BE4
:1043A000198A80E0DF91CF910895EF92FF920F93E9
:1043B0001F93CF93DF93FB012081213851F5238197
:1043C000223239F5DC0112962C9130E0448155817E
:1043D00042175307F1F4EC010B851C85E12CF12CFD
:1043E0000115110591F0F8014481558162817381B5
:1043F00080E80E94472B8F3FFFEF9F0769F0E80E90
:10440000F91ED8010D911C91EBCF81E08F87C70178
:1044100005C080E090E002C08FEF9FEFDF91CF9169
:104420001F910F91FF90EF900895FC01A385B48533
:10443000109719F47487638709C08D919C91119727
:10444000009711F0DC01F9CF6D937C9325853685BB
:10445000DB0114968D919C911597820F931F96877F
:1044600085870895AF92BF92CF92DF92EF92FF922D
:104470000F931F93CF93DF931F92CDB7DEB77C01CD
:1044800069836A01590141E050E0BE016F5F7F4FCF
:10449000FC0183810E94982A8C0197FD0BC0F701D3
:1044A0008381A501B60180640E94982A97FD02C00D
:1044B000800F911F0F90DF91CF911F910F91FF906F
:1044C000EF90DF90CF90BF90AF900895CF93DF93A0
:1044D000EC0181E08C838D839E01265F3F4F3F83FB
:1044E0002E831986188623EC31E0398328831C86B5
:1044F0001B861E861D868F87888B198A1A8A81ECF7
:104500008A870E947B27BE01DF91CF910C943427CC
:1045100080911105811107C08EEF94E00E94662200
:1045200081E0809311058EEF94E0089580912F052E
:10453000811113C010921A051092190582EE95E0B0
:1045400090931C0580931B0589E190E090931E05D4
:1045500080931D0581E080932F050E94882269E1E8
:1045600075E00C941522DC0120E030E04D915D9166
:10457000452B41F4220F331FFC01E20FF31F71831F
:10458000608308952F5F3F4F2430310579F70895F8
:1045900028E0FC0111922A95E9F70895CF93DF9363
:1045A000EC010E94882228E030E0AE0164E0DF9157
:1045B000CF910C9432220F931F93CF93DF93EC0192
:1045C0008C01085F1F4F48E050E0BC01C8010E9409
:1045D0007A2F892B51F0CE010E94CE2288E0FE0175
:1045E000D80101900D928A95E1F7DF91CF911F914B
:1045F0000F91089528E0FC0111922A95E9F70C9497
:10460000DB220C94FA228FE195E00C9496228091A3
:104610007705811113C010923805109237058BEF82
:1046200095E090933A058093390581E490E090936A
:104630003C0580933B0581E0809377050E948822AA
:1046400067E375E00C941522CF93DF93EC010E9491
:1046500088222DE130E0AE0168E0DF91CF910C942B
:104660003222EF92FF920F931F93CF93DF93EC01CF
:104670007C018DE1E80EF11C4DE150E0BE01C70167
:104680000E947A2F892B09F443C00D8D1881802F49
:1046900080958123B1F04CE150E0BE016F5F7F4F08
:1046A000CE014E960E947A2F892B59F01D8F0E94C1
:1046B00088222DE130E0A70168E00E9432220D8FB0
:1046C00019C0812F80958023A9F04CE150E0BE01F4
:1046D0006F5F7F4FCE014E960E947A2F892B51F04B
:1046E00008830E9488222DE130E0AE0168E00E943C
:1046F00032221883CE010E9424231816190654F47E
:104700002DE1FE01D70101900D922A95E1F702C03B
:104710008FEF9FEFDF91CF911F910F91FF90EF905F
:1047200008956E3D90F4262F269526952695FC013A
:10473000E20FF11D677081E090E001C0880F6A957B
:10474000EAF79181892B81830DC0605E683068F43F
:1047500021E030E001C0220F6A95EAF7FC013081C8
:10476000232B208381E090E0089580E090E008957D
:104770006E3D98F4262F269526952695FC01E20F8E
:10478000F11D677081E090E001C0880F6A95EAF73B
:1047900080959181892381830EC0605E683070F4BA
:1047A00021E030E001C0220F6A95EAF72095FC0174
:1047B00030812323208381E090E0089580E090E021
:1047C00008952DE1FC0111922A95E9F70895CF9300
:1047D000DF93EC010E94E123CE01DF91CF910C9495
:1047E00024230C94E7238DE395E00C9407230F9387
:1047F000FC0161834283238304830F91089525E0A4
:10480000FC0111922A95E9F70895FC012081622BA1
:10481000608308956095FC01208162236083089580
:10482000CF93DF93EC010E94882225E030E0AE01B7
:1048300061E0DF91CF910C9432220F931F93CF93BD
:10484000DF93EC018C010B5F1F4F45E050E0BC0192
:10485000C8010E947A2F892B49F445E050E06FE7A8
:1048600075E0CE010E947A2F892B51F0CE010E9473
:10487000102485E0FE01D80101900D928A95E1F7A0
:10488000DF91CF911F910F910895CF93DF93EC01AA
:104890000E94FF23CE01DF91CF910C941D24CF9372
:1048A000DF93EC0180919405811113C0109285056E
:1048B000109284058CE396E090938705809386059B
:1048C0008AE390E0909389058093880581E0809346
:1048D00094050E94882264E875E00E941522CE01AA
:1048E000DF91CF910C9445248091A305811113C0D1
:1048F00010929D0510929C0586E796E090939F0587
:1049000080939E0588E190E09093A1058093A00597
:1049100081E08093A3050E9488226CE975E00C94E5
:1049200015220F931F93CF93DF93EB018A010E940F
:1049300088229801AE0165E0DF91CF911F910F9120
:104940000C943222CF93DF931F92CDB7DEB719823A
:1049500041E050E0BE016F5F7F4F0E9491240F90B5
:10496000DF91CF9108950C94A2240C94A224CF93AC
:10497000DF931F92CDB7DEB76983633829F48CE1EA
:1049800096E00E94902D07C041E050E0BE016F5FAD
:104990007F4F0E9491240F90DF91CF91089582EA7A
:1049A00095E00C947424CF93DF93CDB7DEB769976D
:1049B0000FB6F894DEBF0FBECDBFFC01DB019C91AA
:1049C0009F5F9C93BE016F5F7F4F89E1DB011D926A
:1049D0008A95E9F729E0298384E08A8391E09D8321
:1049E00083E08E832A8721E22B879C879D879F8780
:1049F00022E2288B25E3298B27E02B8B25E02C8BCB
:104A00008E8B20E430E0388F2F8B998F82818B83BF
:104A1000838180688D8B49E150E080E00E94472BC4
:104A200069960FB6F894DEBF0FBECDBFDF91CF9170
:104A30000895FC01838180640C94982A0A970C9451
:104A40001925FB0120812138B9F423812232A1F4F8
:104A5000DC0112962C91129730E044815581421767
:104A6000530751F421E052962C9345E350E06EE851
:104A700076E080E80C94472B80E090E00895DC011C
:104A8000FB0112968C91129790E024813581821758
:104A90009307D1F491818081813A31F481E09130A2
:104AA00091F0933089F411C0813271F49B3021F47C
:104AB000828152968C9305C09A3031F4828153964C
:104AC0008C9381E00895089580E00895CF93DF935B
:104AD000EC0181E08C838D839E012F5E3F4F3F83ED
:104AE0002E83198618861D861C861F861E86188AA8
:104AF0002FEC31E0398328832DED31E03B872A8785
:104B00008A8B8B8B81EC898B0E947B27BE01DF9186
:104B1000CF910C9434278BEA95E00C946625CF93C3
:104B2000DF931F92CDB7DEB76983DC01ED91FC9175
:104B30000280F381E02D41E050E0BE016F5F7F4FC6
:104B400009950F90DF91CF910895CF93DF93EC01FA
:104B50008C859D8597FF05C082E00E94672A9D870E
:104B60008C878C859D85DF91CF91089583E00E948D
:104B70007E2A90E0089583E00C94FB2CFC01848550
:104B8000958597FD06C082E00E94132A90E0019669
:104B9000089582E00E94132A90E00895FC01848524
:104BA000958597FD05C02FEF3FEF35872487089542
:104BB00082E00C94672ACF93DF93EC018091380157
:104BC000882331F083E00E94982A1816190634F0E1
:104BD00081E090E09B838A8380E090E0DF91CF9139
:104BE0000895EEEFFFE72591349181E02B3F3C4D96
:104BF00009F080E00895FC0190819E5F908342E47B
:104C000050E063EC76E080E80C94472BFC01818156
:104C10009081913A59F4813209F065C047E050E043
:104C200061E371E080E00E94472B5BC0913209F0A4
:104C30005AC0833269F482819381A0E0B0E080930E
:104C40002D0190932E01A0932F01B093300149C004
:104C5000803239F467E070E081E391E00E946E2BCE
:104C600040C0823209F03DC08281809338010E94A9
:104C7000F125882319F0EEEFFAE002C0E0E0F8E059
:104C80008091310190913201A0913301B0913401B2
:104C9000803B9440A105B10541F58091380180FD2C
:104CA00024C0EE3F8AE0F80751F080819181873778
:104CB00027E7920721F09093FF0A8093FE0A87E787
:104CC00097E7918380838091600080930F069BE03B
:104CD00088E10FB6F894A895809360000FBE90937A
:104CE000600081E0089580E0089580819181873798
:104CF0009747B9F7A895809160008861809360001C
:104D000080910F0680936000EE3F8AE0F80739F04B
:104D10008091FE0A9091FF0A91838083E2CF1092E6
:104D2000FF0A1092FE0ADDCF2FEF3FEFFC0135871F
:104D300024870895EFEBF5E01382128288EE93E06A
:104D4000A0E0B0E084839583A683B78383EE91E0EF
:104D5000918380838FEF9FEF958784870895EF92EB
:104D6000FF920F931F93CF93DF937B01FC01C281CE
:104D7000D38100E010E0209781F0E881F981028082
:104D8000F381E02DB701CE01099597FD08C0080F0A
:104D9000191F0884D985C02DEECFC80102C08FEF3E
:104DA0009FEFDF91CF911F910F91FF90EF900895AA
:104DB0000F931F93CF93DF938B01FC01C281D381AB
:104DC000209771F0E881F9810480F581E02DB80128
:104DD000CE010995009731F40884D985C02DF0CF14
:104DE00080E090E0DF91CF911F910F9108950F9394
:104DF0001F93CF93DF938B01FC01C281D381209756
:104E000071F0E881F9810680F781E02DB801CE01CB
:104E10000995080F111D0884D985C02DF0CFF80120
:104E20001082DF91CF911F910F9108950F931F93DF
:104E3000CF93DF938B01FC01C281D381209771F066
:104E4000E881F9810190F081E02DB801CE0109954A
:104E5000811105C00884D985C02DF0CF80E0DF9195
:104E6000CF911F910F910895CF93DF93FC01DB0148
:104E7000218114968C91149790E0820F911D0897D0
:104E8000A4F5C281D381209719F47383628308C08B
:104E900088859985009711F0EC01FACFB987A8872A
:104EA000808112968C931297818113968C9313971D
:104EB000908115968C911597890F808380E01496C8
:104EC0009C911497891798F41696CD91DC911797B9
:104ED000C80FD11D9881C181D0E0C75CDE4F988397
:104EE00091819F5F91838F5FEACF80E001C081E075
:104EF000DF91CF9108958091140681110DC082E059
:104F00008093100684E0809311061092130610928D
:104F1000120681E08093140680E196E00895611501
:104F2000710579F0FB0101900020E9F73197AF019D
:104F3000461B570BDC01ED91FC910280F381E02DC3
:104F4000099480E090E00895EF92FF920F931F93F1
:104F5000CF93DF938C017B01C0E0D0E0F701EC0F31
:104F6000FD1F6491662361F0D801ED91FC910190E1
:104F7000F081E02DC8010995892B11F02196EECF23
:104F8000CE01DF91CF911F910F91FF90EF90089587
:104F9000DC01ED91FC910190F081E02D099461EF2D
:104FA00071E00C948F270F931F93CF93DF93EC0145
:104FB0000E94A4278C01CE010E94CF27800F911F51
:104FC000DF91CF911F910F9108958F929F92AF9291
:104FD000BF92EF92FF920F931F93CF93DF93CDB7C2
:104FE000DEB7A1970FB6F894DEBF0FBECDBF7C0130
:104FF000FA01CB0119A2223008F42AE08E010F5DDC
:105000001F4F822E912CA12CB12CBF01A501940120
:105010000E94F62EF901CA01015011096A3014F4F8
:10502000605D01C0695CD8016C93232B242B252B78
:1050300061F7B801C7010E948F27A1960FB6F894B7
:10504000DEBF0FBECDBFDF91CF911F910F91FF90BB
:10505000EF90BF90AF909F908F90089521153105EC
:1050600041F4DC01ED91FC910190F081E02D642F81
:1050700009940C94E5279A01462F50E060E070E017
:105080000C942E289A01AB0160E070E00C942E285D
:10509000CF92DF92EF92FF920F931F93CF93DF9304
:1050A0002115310581F4DC01ED91FC910190F08135
:1050B000E02D642FDF91CF911F910F91FF90EF9022
:1050C000DF90CF9009942A30310501F577FF1DC09C
:1050D0006A017B01EC016DE20E94C8278C01442724
:1050E0005527BA014C195D096E097F092AE0CE01E6
:1050F0000E94E527800F911FDF91CF911F910F91A3
:10510000FF90EF90DF90CF9008952AE0DF91CF914C
:105110001F910F91FF90EF90DF90CF900C94E527B7
:105120009A01AB01770F660B770B0C9448280F930D
:105130001F93CF93DF93EC010E940A2E6887798733
:105140008A879B87E881F9810484F585E02DCE016B
:10515000099597FF17C00E940A2E088519852A8590
:105160003B85DC01CB01801B910BA20BB30B0C81A7
:105170001D812E813F8180179107A207B30710F38D
:105180008FEF9FEFDF91CF911F910F910895FF92C5
:105190000F931F93CF93DF93EC018B01F42ECE017D
:1051A0000E94972897FD2DC08D32910519F19C0121
:1051B000205331092A30310520F1FF2019F08E32B9
:1051C0009105D1F001301105D1F00230110551F4F3
:1051D0008D30910539F024F40997029718F00FC02B
:1051E000809769F4E881F9810284F385E02DCE018E
:1051F0000995D5CF8DE201C08EE290E002C08FEF1D
:105200009FEFDF91CF911F910F91FF900895BF9273
:10521000CF92DF92EF92FF920F931F93CF93DF9382
:105220008C01C42F40E00E94C728FC0197FD47C0B5
:10523000C12CD12C7601B12C0C2E000CDD0BEC17FF
:10524000FD0709F1ED32F105E1F0CF01C0970A97B2
:10525000D0F4AAE0B0E0A70196010E94262F6F01CA
:10526000FF0FEE08FF08DC01CB018C0D9D1DAE1D6C
:10527000BF1D6C017D0120E3C21AD108E108F108CD
:1052800002C0BB24B394D801ED91FC910284F38554
:10529000E02DC8010995C8010E949728FC01C0971C
:1052A0000A9768F2CE17DF0751F2BB2061F066273C
:1052B0007727CB016C197D098E099F0906C060E034
:1052C00070E0CB0102C0C701B601DF91CF911F9101
:1052D0000F91FF90EF90DF90CF90BF900895409195
:1052E0001F065091200620911D0630911E06421780
:1052F0005307B4F49091E8009570E1F39091E800C1
:1053000092FD19C08093F10080911F0690912006B4
:1053100001968F739927892B19F48EEF8093E800FB
:1053200080911F069091200601969093200680930D
:105330001F0681E0089580E00895DF92EF92FF92CA
:105340000F931F93CF93DF93D82EF92EE42E062FC1
:1053500010E0C8010196880F0E946F2983E00E9427
:105360006F29CD2DDF2D0C0F1D1FC017D10789F020
:10537000E7FE03C0FE01849101C088810E946F296D
:10538000F82E80E00E946F298F2121968111EDCFA8
:1053900001C081E0DF91CF911F910F91FF90EF90BD
:1053A000DF9008958091D70081608093D70080EAD4
:1053B0008093D80089B5806189BD89B5826089BD37
:1053C00009B400FEFDCF61E070E080E090E00E9453
:1053D0003B2E8091D8008F7C80618093D800809193
:1053E000E000807F8093E0000895CF93DF931F92C9
:1053F000CDB7DEB71982CE0101960E94FB250E942F
:105400007B27BE016F5F7F4F0E94AF2689810F907F
:10541000DF91CF9108952FB7FC012083F894677036
:105420006093E9000895CF93DF931F92CDB7DEB765
:10543000682FCE0101960E940B2A8091F20099817B
:105440009FBF0F90DF91CF910895EF92FF920F933E
:105450001F93CF93DF931F92CDB7DEB790912306B2
:10546000992311F057FF03C08FEF9FEF28C08A01E7
:105470007B01682FCE0101960E940B2A2091F20039
:1054800030E0021713070CF49801822FF70194E61D
:10549000815030F0909324064091F1004193F8CF71
:1054A0002115310521F08091F200882321F08981B6
:1054B0008FBFC90104C08BE68093E800F8CF0F903E
:1054C000DF91CF911F910F91FF90EF900895CF93AF
:1054D000DF931F92CDB7DEB741E050E0BE016F5FB2
:1054E0007F4F0E94252A019719F4898190E002C01C
:1054F0008FEF9FEF0F90DF91CF910895CF93DF93C0
:105500001F92CDB7DEB7682FCE0101960E940B2AFD
:105510009091E800892F807295FF04C09091F2006D
:1055200080E4891B99819FBF0F90DF91CF910895EF
:105530005F926F927F928F929F92AF92BF92CF9223
:10554000DF92EF92FF920F931F93CF93DF931F92FF
:10555000CDB7DEB7982E6B01B42E052F80912306B0
:10556000811103C08FEF9FEF76C08091210680FFED
:1055700005C08091E00082608093E000EB2CF02E6B
:10558000A12C8AEF882E892D8072682E892D807437
:10559000582E9AE3792EE114F10419F4AA2009F4A3
:1055A00055C0892D0E947E2A182F81110AC08A9425
:1055B0008820C1F261E070E080E090E00E943B2E24
:1055C000EACF90E0E816F9060CF41E2D692DCE0105
:1055D00001960E940B2A8091E80085FF34C0812F3C
:1055E00090E0E81AF90A662029F01150A0F0109214
:1055F000F100FBCFF60197FE0AC0115050F0249144
:105600002093F1003196F9CF21912093F1001150B0
:10561000D8F7C80ED91EAA2019F07092E8000BC066
:105620008091E80085FD09C07092E800AA24A39447
:10563000E114F10441F0A12C06C0E114F10419F4C5
:1056400051107092E80089818FBFA5CF84E68093C6
:1056500025068B2D902F0F90DF91CF911F910F91E9
:10566000FF90EF90DF90CF90BF90AF909F908F9082
:105670007F906F905F9008951092E900109220063D
:1056800010921F0690931E0680931D060895DF92C8
:10569000EF92FF920F931F93CF93DF93D82E8A013F
:1056A0007B01E40EF51EEB01CE15DF0571F0D7FE90
:1056B00003C0FE01849101C088810E946F29219658
:1056C0008111F2CF8FEF9FEF01C0C801DF91CF9121
:1056D0001F910F91FF90EF90DF900895CF93DF938C
:1056E000EC019B01B4E6ABEF21153105F1F0A90106
:1056F0002134310514F040E450E08091E80082FF4D
:10570000FCCF942FFB01E21BF30BEC0FFD1F91501C
:1057100028F08091F10080833196F9CFB093240670
:10572000A093E800241B350BDFCFCB01DF91CF9195
:1057300008951F920F920FB60F921124CF92DF920D
:10574000EF92FF920F931F932F933F934F935F938B
:105750006F937F938F939F93AF93BF93EF93FF9339
:10576000CF93DF93CDB7DEB76C97DEBFCDBF10927E
:10577000E9008091E80083FF1FC189E0FE01759672
:10578000FE2E0F2F815029F09091F10090833196D9
:10579000F9CF84E68093240682EF8093E8008D8918
:1057A00087FF05C09091E80090FFFCCF03C09EEFFB
:1057B0009093E800982F907609F0D7C09E894F8982
:1057C000588D2F89188D91110CC0803829F4809143
:1057D00022068093F10002C01092F1001092F100B5
:1057E000E4C0913051F48111E0C04130510509F01D
:1057F000DCC0809122068D7F0BC0933061F4811153
:10580000D4C04130510509F0D0C080912206826099
:1058100080932206CAC0953049F48091E80080FF49
:10582000FCCF822F80688093E300BFC0963009F0E0
:105830006FC0CB8CDC8C123069F580E090E00E9468
:105840003C2B0E94F52999E09E012F5F3F4F790183
:10585000F901292F11922A95E9F799831A8391E08A
:105860009E8390EA98879AEF998720911F0630913E
:105870002006275F3F4F3C832B838D83C6010E9408
:105880003C2B49E050E0B70180E00E94472B0E948A
:10589000F5298BC0C6010E943C2B0E947B276F2DEF
:1058A000702F0E94D826009719F00CF07EC081C09E
:1058B000113009F46FC0133009F07BC08F89882341
:1058C00009F46BC0823029F440E868E082E297E096
:1058D00006C0813039F440E86AE087E197E00E9431
:1058E0009D2955C0833009F064C00E947B278E013A
:1058F0000F5F1F4FB8010E94F726F80101900020AA
:10590000E9F73197BF01601B710B40E0C801E7CF99
:10591000973009F44EC0983021F481E08093F10073
:1059200044C0993009F041C0837009F042C0EAE3F5
:10593000F1E081E031E096E32081211109C08EE79A
:105940008093EA001092EA008F89809323062DC08D
:105950008093E9003093EB0021912093EC00909329
:10596000ED008F5F873041F7EACF8B8D9C8D0E94D1
:105970003C2B898D811105C08F2D902F0E9406260A
:1059800006C00E947B276F2D702F0E941627882348
:1059900081F00BC065E077E002C06BE277E0FB01CD
:1059A000449150E080E80E94472B8EEF8093E800FE
:1059B00003C081E28093EB006C960FB6F894DEBFD3
:1059C0000FBECDBFDF91CF91FF91EF91BF91AF910E
:1059D0009F918F917F916F915F914F913F912F9107
:1059E0001F910F91FF90EF90DF90CF900F900FBE1F
:1059F0000F901F9018958093E9008091F200882302
:105A000019F08AE38093E80008951F920F920FB671
:105A10000F9211242F933F934F935F936F937F9334
:105A20008F939F93AF93BF93CF93EF93FF93C091C7
:105A3000E1008091E100837F8093E100C3FF0FC00C
:105A40001092E90081E08093EB001092EC0082E379
:105A50008093ED001092230688E08093F000C2FF4F
:105A600015C083E00E94FB2C80912506882329F035
:105A700080912506815080932506809124068823F5
:105A800029F080912406815080932406C4FF10C021
:105A90008091E2008E7E81608093E2008091E1003F
:105AA0008F7E8093E100809121068E7E806111C0FF
:105AB000C0FF11C08091E2008E7E80618093E20081
:105AC0008091E1008E7E8093E100809121068E7EA0
:105AD000816080932106FF91EF91CF91BF91AF91AB
:105AE0009F918F917F916F915F914F913F912F91F6
:105AF0000F900FBE0F901F901895109223061092D2
:105B00002206109221060E94D229E1EEF0E0808167
:105B10008E7E80838DE08093E200559A209A0895CE
:105B20008091E0008D7F8093E0008091E00081FD16
:105B300008C08091210680FF04C08091220681FD6B
:105B400002C080E008950E94D2298091E000826026
:105B50008093E00081E0089508950E94772E0E94CE
:105B6000AC2D8CE196E00E947D2D0E942305C0E0C3
:105B7000D0E00E9459052097E1F30E940000F9CF80
:105B80001F920F920FB60F9211242F933F938F9372
:105B90009F93AF93BF938091270690912806A09181
:105BA0002906B0912A063091260623E0230F2D37CF
:105BB00020F40196A11DB11D05C026E8230F029611
:105BC000A11DB11D209326068093270690932806D9
:105BD000A0932906B0932A0680912B0690912C065B
:105BE000A0912D06B0912E060196A11DB11D8093A6
:105BF0002B0690932C06A0932D06B0932E06BF91F2
:105C0000AF919F918F913F912F910F900FBE0F9069
:105C10001F9018952FB7F894609127067091280669
:105C20008091290690912A062FBF08953FB7F894D6
:105C300080912B0690912C06A0912D06B0912E06F6
:105C400026B5A89B05C02F3F19F00196A11DB11DD7
:105C50003FBFBA2FA92F982F8827820F911DA11D12
:105C6000B11DBC01CD0142E0660F771F881F991F4F
:105C70004A95D1F708958F929F92AF92BF92CF929B
:105C8000DF92EF92FF926B017C010E94162E4B0176
:105C90005C01C114D104E104F10401F10E94CD2E94
:105CA0000E94162EDC01CB0188199909AA09BB09AB
:105CB000883E9340A105B10560F321E0C21AD108E6
:105CC000E108F10888EE880E83E0981EA11CB11C43
:105CD000C114D104E104F10419F7DBCFFF90EF9078
:105CE000DF90CF90BF90AF909F908F900895789461
:105CF00084B5826084BD84B5816084BD85B58260D1
:105D000085BD85B5816085BDEEE6F0E0808181606E
:105D10008083E1E8F0E0108280818260808380816E
:105D200081608083E0E8F0E0808181608083E1E948
:105D3000F0E0808182608083808181608083E0E9FF
:105D4000F0E0808181608083E1ECF0E0808184601C
:105D50008083808182608083808181608083E3ECA6
:105D6000F0E0808181608083E0ECF0E080818260FF
:105D70008083E2ECF0E0808181608083EAE7F0E0FC
:105D80008081846080838081826080838081816063
:105D9000808380818068808308950895AA1BBB1B3F
:105DA00051E107C0AA1FBB1FA617B70710F0A61B1B
:105DB000B70B881F991F5A95A9F780959095BC013C
:105DC000CD01089597FB072E16F4009407D077FDB8
:105DD00009D00E94CE2E07FC05D03EF49095819507
:105DE0009F4F0895709561957F4F0895A1E21A2EF7
:105DF000AA1BBB1BFD010DC0AA1FBB1FEE1FFF1F6F
:105E0000A217B307E407F50720F0A21BB30BE40BBE
:105E1000F50B661F771F881F991F1A9469F7609505
:105E20007095809590959B01AC01BD01CF010895BF
:105E3000EE0FFF1F0590F491E02D09940E94312F81
:105E40008F93CB010E94312F0C94382F0E944B2F3F
:105E5000A59F900DB49F900DA49F800D911D1124BE
:105E600008950E943B2F8F93892F0E943B2F9927E3
:105E70000F90800D0895082E817006940694811D60
:105E80000694811D0694811D0694811D0694811D32
:105E90000694801D0895A29FB001B39FC001A39FE7
:105EA000700D811D1124911DB29F700D811D112453
:105EB000911D0895FB01DC0102C005900D92415037
:105EC0005040D8F70895FB01DC018D9105908019B1
:105ED0000110D9F3990B0895FB01DC0141505040AA
:105EE00030F08D910590801919F40020B9F7881BC6
:105EF000990B0895FB01DC0104C08D91019080197C
:105F000021F441505040C8F7881B990B0895F99926
:105F1000FECF92BD81BDF89A992780B50895262FAE
:105F2000F999FECF1FBA92BD81BD20BD0FB6F8947E
:105F3000FA9AF99A0FBE0196089513E0C9EAD3E0E0
:105F400004C0FE010E94182F2196CA3AD107C9F752
:045F5000F894FFCFF3
:105F540003011E09040001808080E803320020FF51
:105F6400F023AA0043FFFFF40132000140000101C5
:105F74000001107F02FFFFAA0000A0FF01FFFFFF46
:105F8400FF00E100000000000000C180810000006B
:105F94000100000000D403A70AD603B60A000000DB
:105FA40000D403D50355100C1000000000D403D511
:105FB400037212D703000000002E1200000000D468
:105FC400032114D603271400000000D403D5035979
:105FD40015D70300000000D403D5037415D70300BC
:105FE400000000D403D503C915D70300000000D472
:105FF40003D503F415D70300000000D4034416D6D8
:10600400034E16000000000C20C41F5520BD1F00C5
:106014000000008F214721D5213821000000003FD6
:1060240025D3242125BD1F1925F6FF00001E2500B8
:106034000000008F25DB25B625BB25BE25CE25A572
:10604400250D0A006E616E00696E66006F7666004B
:00000001FF
